{
  "contractName": "CelebrityToken",
  "abi": [
    {
      "inputs": [
        {
          "internalType": "uint256",
          "name": "_id",
          "type": "uint256"
        },
        {
          "internalType": "string",
          "name": "_vertical",
          "type": "string"
        },
        {
          "internalType": "string",
          "name": "_category",
          "type": "string"
        },
        {
          "internalType": "string",
          "name": "_name",
          "type": "string"
        },
        {
          "internalType": "string",
          "name": "_symbol",
          "type": "string"
        },
        {
          "internalType": "uint256",
          "name": "_supply",
          "type": "uint256"
        },
        {
          "internalType": "address",
          "name": "_owner",
          "type": "address"
        },
        {
          "internalType": "address",
          "name": "_creator",
          "type": "address"
        },
        {
          "internalType": "address[3]",
          "name": "CelebrityExchangeAddressReserveAndFounder",
          "type": "address[3]"
        },
        {
          "internalType": "uint8[3]",
          "name": "percentageAllocationToCreatorReserveAndFounder",
          "type": "uint8[3]"
        }
      ],
      "payable": false,
      "stateMutability": "nonpayable",
      "type": "constructor"
    },
    {
      "anonymous": false,
      "inputs": [
        {
          "indexed": true,
          "internalType": "address",
          "name": "owner",
          "type": "address"
        },
        {
          "indexed": true,
          "internalType": "address",
          "name": "spender",
          "type": "address"
        },
        {
          "indexed": false,
          "internalType": "uint256",
          "name": "value",
          "type": "uint256"
        }
      ],
      "name": "Approval",
      "type": "event"
    },
    {
      "anonymous": false,
      "inputs": [
        {
          "indexed": false,
          "internalType": "string",
          "name": "contractName",
          "type": "string"
        },
        {
          "indexed": false,
          "internalType": "string",
          "name": "operation",
          "type": "string"
        },
        {
          "indexed": false,
          "internalType": "string",
          "name": "error",
          "type": "string"
        },
        {
          "indexed": false,
          "internalType": "string",
          "name": "info",
          "type": "string"
        },
        {
          "indexed": false,
          "internalType": "address",
          "name": "user",
          "type": "address"
        },
        {
          "indexed": false,
          "internalType": "uint256",
          "name": "blockNumber",
          "type": "uint256"
        }
      ],
      "name": "Failure",
      "type": "event"
    },
    {
      "anonymous": false,
      "inputs": [
        {
          "indexed": true,
          "internalType": "address",
          "name": "from",
          "type": "address"
        },
        {
          "indexed": true,
          "internalType": "address",
          "name": "to",
          "type": "address"
        },
        {
          "indexed": false,
          "internalType": "uint256",
          "name": "value",
          "type": "uint256"
        }
      ],
      "name": "Transfer",
      "type": "event"
    },
    {
      "constant": true,
      "inputs": [],
      "name": "CelebrityExchangeAddress",
      "outputs": [
        {
          "internalType": "address",
          "name": "",
          "type": "address"
        }
      ],
      "payable": false,
      "stateMutability": "view",
      "type": "function"
    },
    {
      "constant": true,
      "inputs": [],
      "name": "category",
      "outputs": [
        {
          "internalType": "string",
          "name": "",
          "type": "string"
        }
      ],
      "payable": false,
      "stateMutability": "view",
      "type": "function"
    },
    {
      "constant": true,
      "inputs": [],
      "name": "creator",
      "outputs": [
        {
          "internalType": "address",
          "name": "",
          "type": "address"
        }
      ],
      "payable": false,
      "stateMutability": "view",
      "type": "function"
    },
    {
      "constant": true,
      "inputs": [],
      "name": "decimals",
      "outputs": [
        {
          "internalType": "uint256",
          "name": "",
          "type": "uint256"
        }
      ],
      "payable": false,
      "stateMutability": "view",
      "type": "function"
    },
    {
      "constant": true,
      "inputs": [],
      "name": "founder",
      "outputs": [
        {
          "internalType": "address",
          "name": "",
          "type": "address"
        }
      ],
      "payable": false,
      "stateMutability": "view",
      "type": "function"
    },
    {
      "constant": true,
      "inputs": [],
      "name": "id",
      "outputs": [
        {
          "internalType": "uint256",
          "name": "",
          "type": "uint256"
        }
      ],
      "payable": false,
      "stateMutability": "view",
      "type": "function"
    },
    {
      "constant": true,
      "inputs": [],
      "name": "name",
      "outputs": [
        {
          "internalType": "string",
          "name": "",
          "type": "string"
        }
      ],
      "payable": false,
      "stateMutability": "view",
      "type": "function"
    },
    {
      "constant": true,
      "inputs": [],
      "name": "owner",
      "outputs": [
        {
          "internalType": "address",
          "name": "",
          "type": "address"
        }
      ],
      "payable": false,
      "stateMutability": "view",
      "type": "function"
    },
    {
      "constant": true,
      "inputs": [],
      "name": "reserve",
      "outputs": [
        {
          "internalType": "address",
          "name": "",
          "type": "address"
        }
      ],
      "payable": false,
      "stateMutability": "view",
      "type": "function"
    },
    {
      "constant": true,
      "inputs": [],
      "name": "symbol",
      "outputs": [
        {
          "internalType": "string",
          "name": "",
          "type": "string"
        }
      ],
      "payable": false,
      "stateMutability": "view",
      "type": "function"
    },
    {
      "constant": true,
      "inputs": [],
      "name": "vertical",
      "outputs": [
        {
          "internalType": "string",
          "name": "",
          "type": "string"
        }
      ],
      "payable": false,
      "stateMutability": "view",
      "type": "function"
    },
    {
      "constant": true,
      "inputs": [],
      "name": "totalSupply",
      "outputs": [
        {
          "internalType": "uint256",
          "name": "",
          "type": "uint256"
        }
      ],
      "payable": false,
      "stateMutability": "view",
      "type": "function"
    },
    {
      "constant": true,
      "inputs": [],
      "name": "totalCirculation",
      "outputs": [
        {
          "internalType": "uint256",
          "name": "",
          "type": "uint256"
        }
      ],
      "payable": false,
      "stateMutability": "view",
      "type": "function"
    },
    {
      "constant": false,
      "inputs": [],
      "name": "toggeleAllowTradingOnCelebrityExchange",
      "outputs": [],
      "payable": false,
      "stateMutability": "nonpayable",
      "type": "function"
    },
    {
      "constant": true,
      "inputs": [],
      "name": "isTradingAllowedOnCelebrityExchange",
      "outputs": [
        {
          "internalType": "bool",
          "name": "",
          "type": "bool"
        }
      ],
      "payable": false,
      "stateMutability": "view",
      "type": "function"
    },
    {
      "constant": true,
      "inputs": [
        {
          "internalType": "address",
          "name": "user",
          "type": "address"
        }
      ],
      "name": "balanceOf",
      "outputs": [
        {
          "internalType": "uint256",
          "name": "",
          "type": "uint256"
        }
      ],
      "payable": false,
      "stateMutability": "view",
      "type": "function"
    },
    {
      "constant": true,
      "inputs": [
        {
          "internalType": "address",
          "name": "user",
          "type": "address"
        },
        {
          "internalType": "address",
          "name": "spender",
          "type": "address"
        }
      ],
      "name": "allowance",
      "outputs": [
        {
          "internalType": "uint256",
          "name": "",
          "type": "uint256"
        }
      ],
      "payable": false,
      "stateMutability": "view",
      "type": "function"
    },
    {
      "constant": false,
      "inputs": [
        {
          "internalType": "address",
          "name": "to",
          "type": "address"
        },
        {
          "internalType": "uint256",
          "name": "value",
          "type": "uint256"
        }
      ],
      "name": "transfer",
      "outputs": [
        {
          "internalType": "bool",
          "name": "",
          "type": "bool"
        }
      ],
      "payable": false,
      "stateMutability": "nonpayable",
      "type": "function"
    },
    {
      "constant": false,
      "inputs": [
        {
          "internalType": "address",
          "name": "spender",
          "type": "address"
        },
        {
          "internalType": "uint256",
          "name": "value",
          "type": "uint256"
        }
      ],
      "name": "approve",
      "outputs": [
        {
          "internalType": "bool",
          "name": "",
          "type": "bool"
        }
      ],
      "payable": false,
      "stateMutability": "nonpayable",
      "type": "function"
    },
    {
      "constant": false,
      "inputs": [
        {
          "internalType": "address",
          "name": "from",
          "type": "address"
        },
        {
          "internalType": "address",
          "name": "to",
          "type": "address"
        },
        {
          "internalType": "uint256",
          "name": "value",
          "type": "uint256"
        }
      ],
      "name": "transferFrom",
      "outputs": [
        {
          "internalType": "bool",
          "name": "",
          "type": "bool"
        }
      ],
      "payable": false,
      "stateMutability": "nonpayable",
      "type": "function"
    },
    {
      "constant": false,
      "inputs": [
        {
          "internalType": "address",
          "name": "spender",
          "type": "address"
        },
        {
          "internalType": "uint256",
          "name": "addedValue",
          "type": "uint256"
        }
      ],
      "name": "increaseAllowance",
      "outputs": [
        {
          "internalType": "bool",
          "name": "",
          "type": "bool"
        }
      ],
      "payable": false,
      "stateMutability": "nonpayable",
      "type": "function"
    },
    {
      "constant": false,
      "inputs": [
        {
          "internalType": "address",
          "name": "spender",
          "type": "address"
        },
        {
          "internalType": "uint256",
          "name": "subtractedValue",
          "type": "uint256"
        }
      ],
      "name": "decreaseAllowance",
      "outputs": [
        {
          "internalType": "bool",
          "name": "",
          "type": "bool"
        }
      ],
      "payable": false,
      "stateMutability": "nonpayable",
      "type": "function"
    },
    {
      "constant": false,
      "inputs": [
        {
          "internalType": "address",
          "name": "_CelebrityExchangeAddress",
          "type": "address"
        }
      ],
      "name": "changeExchangeAddress",
      "outputs": [],
      "payable": false,
      "stateMutability": "nonpayable",
      "type": "function"
    },
    {
      "constant": false,
      "inputs": [
        {
          "internalType": "uint256",
          "name": "_newTotalCirculation",
          "type": "uint256"
        }
      ],
      "name": "updateTotalCirculation",
      "outputs": [],
      "payable": false,
      "stateMutability": "nonpayable",
      "type": "function"
    }
  ],
  "bytecode": "0x60806040523480156200001157600080fd5b506040516200196f3803806200196f83398181016040526101c08110156200003857600080fd5b8151602083018051604051929492938301929190846401000000008211156200006057600080fd5b9083019060208201858111156200007657600080fd5b82516401000000008111828201881017156200009157600080fd5b82525081516020918201929091019080838360005b83811015620000c0578181015183820152602001620000a6565b50505050905090810190601f168015620000ee5780820380516001836020036101000a031916815260200191505b50604052602001805160405193929190846401000000008211156200011257600080fd5b9083019060208201858111156200012857600080fd5b82516401000000008111828201881017156200014357600080fd5b82525081516020918201929091019080838360005b838110156200017257818101518382015260200162000158565b50505050905090810190601f168015620001a05780820380516001836020036101000a031916815260200191505b5060405260200180516040519392919084640100000000821115620001c457600080fd5b908301906020820185811115620001da57600080fd5b8251640100000000811182820188101715620001f557600080fd5b82525081516020918201929091019080838360005b83811015620002245781810151838201526020016200020a565b50505050905090810190601f168015620002525780820380516001836020036101000a031916815260200191505b50604052602001805160405193929190846401000000008211156200027657600080fd5b9083019060208201858111156200028c57600080fd5b8251640100000000811182820188101715620002a757600080fd5b82525081516020918201929091019080838360005b83811015620002d6578181015183820152602001620002bc565b50505050905090810190601f168015620003045780820380516001836020036101000a031916815260200191505b506040908152602082810151918301516060840151885193965090945092608081019260e0909101916200033e916000918a0190620007c5565b50855162000354906001906020890190620007c5565b506012600255600385905560098a9055600580546001600160a01b038681166001600160a01b03199283161790925560068054868416908316179055604084015160088054831691841691909117905560208401516007805490921692169190911790558051606460ff90911611801590620003db57506064816001602002015160ff1611155b8015620003f357506064816002602002015160ff1611155b620004305760405162461bcd60e51b8152600401808060200182810382526038815260200180620019376038913960400191505060405180910390fd5b805160088054602080850151604086015160ff918216600160a81b908102968316600160a01b0260ff60a01b199095169490941760ff60a81b19169590951760ff60b01b1916600160b01b958216959095029490941792839055600354620004c494606494620004b094929392900416906200066d811b62000e4917901c565b620006d460201b62000ea21790919060201c565b6007546001600160a01b03166000908152600d602090815260409091208054929092019091556008546003546200051992606492620004b09291600160a01b90910460ff16906200066d811b62000e4917901c565b6006546001600160a01b03166000908152600d602090815260409091208054929092019091556008546003546200056e92606492620004b09291600160b01b90910460ff16906200066d811b62000e4917901c565b600880546001600160a01b03166000908152600d60209081526040909120805490930190925554600354620005d492606492620004b0929160ff600160a01b83048116600160a81b90930481168603929092039091169062000e496200066d821b17901c565b600580546001600160a01b039081166000908152600d60209081526040808320805490960190955592549091168152919091205460045589516200061f91600a91908c0190620007c5565b5087516200063590600b9060208b0190620007c5565b505051600c80546001600160a01b0390921661010002610100600160a81b0319909216919091179055506200086a9650505050505050565b6000826200067e57506000620006ce565b828202828482816200068c57fe5b0414620006cb5760405162461bcd60e51b8152600401808060200182810382526021815260200180620019166021913960400191505060405180910390fd5b90505b92915050565b6000620006cb83836040518060400160405280601a81526020017f536166654d6174683a206469766973696f6e206279207a65726f0000000000008152506200071e60201b60201c565b60008183620007ae5760405162461bcd60e51b81526004018080602001828103825283818151815260200191508051906020019080838360005b838110156200077257818101518382015260200162000758565b50505050905090810190601f168015620007a05780820380516001836020036101000a031916815260200191505b509250505060405180910390fd5b506000838581620007bb57fe5b0495945050505050565b828054600181600116156101000203166002900490600052602060002090601f016020900481019282601f106200080857805160ff191683800117855562000838565b8280016001018555821562000838579182015b82811115620008385782518255916020019190600101906200081b565b50620008469291506200084a565b5090565b6200086791905b8082111562000846576000815560010162000851565b90565b61109c806200087a6000396000f3fe608060405234801561001057600080fd5b50600436106101585760003560e01c806395d89b41116100c3578063b4dc17d51161007c578063b4dc17d5146103a0578063cd3293de146103bd578063dd62ed3e146103c5578063ef2cd7c6146103f3578063ef430aa6146103fb578063fee828181461040357610158565b806395d89b4114610308578063989430d414610310578063a457c2d714610338578063a9059cbb14610364578063ac86bce114610390578063af640d0f1461039857610158565b8063313ce56711610115578063313ce56714610296578063395093511461029e5780634d853ee5146102ca5780635dcf8d2b146102d257806370a08231146102da5780638da5cb5b1461030057610158565b806302d05d3f1461015d57806306fdde0314610181578063095ea7b3146101fe57806318160ddd1461023e57806318315de21461025857806323b872dd14610260575b600080fd5b61016561040b565b604080516001600160a01b039092168252519081900360200190f35b61018961041a565b6040805160208082528351818301528351919283929083019185019080838360005b838110156101c35781810151838201526020016101ab565b50505050905090810190601f1680156101f05780820380516001836020036101000a031916815260200191505b509250505060405180910390f35b61022a6004803603604081101561021457600080fd5b506001600160a01b0381351690602001356104a8565b604080519115158252519081900360200190f35b6102466105a6565b60408051918252519081900360200190f35b6101896105ac565b61022a6004803603606081101561027657600080fd5b506001600160a01b03813581169160208101359091169060400135610607565b610246610730565b61022a600480360360408110156102b457600080fd5b506001600160a01b038135169060200135610736565b610165610816565b610246610825565b610246600480360360208110156102f057600080fd5b50356001600160a01b031661082b565b610165610846565b610189610855565b6103366004803603602081101561032657600080fd5b50356001600160a01b03166108af565b005b61022a6004803603604081101561034e57600080fd5b506001600160a01b038135169060200135610920565b61022a6004803603604081101561037a57600080fd5b506001600160a01b03813516906020013561099b565b61022a6109f7565b610246610a00565b610336600480360360208110156103b657600080fd5b5035610a06565b610165610aa2565b610246600480360360408110156103db57600080fd5b506001600160a01b0381358116916020013516610ab1565b610336610adc565b610189610b4e565b610165610ba9565b6006546001600160a01b031681565b6000805460408051602060026001851615610100026000190190941693909304601f810184900484028201840190925281815292918301828280156104a05780601f10610475576101008083540402835291602001916104a0565b820191906000526020600020905b81548152906001019060200180831161048357829003601f168201915b505050505081565b60006001600160a01b0383166104ef5760405162461bcd60e51b8152600401808060200182810382526036815260200180610f6e6036913960400191505060405180910390fd5b81158061050357506105013384610ab1565b155b61053e5760405162461bcd60e51b81526004018080602001828103825260468152602001806110226046913960600191505060405180910390fd5b336000818152600e602090815260408083206001600160a01b03881680855290835292819020869055805186815290519293927f8c5be1e5ebec7d5bd14f71427d1e84f3dd0314c0f7b2291e5b200ac8c7c3b925929181900390910190a35060015b92915050565b60035490565b600a805460408051602060026001851615610100026000190190941693909304601f810184900484028201840190925281815292918301828280156104a05780601f10610475576101008083540402835291602001916104a0565b600c5460009061010090046001600160a01b031633146106d8578161062c8533610ab1565b101561067f576040805162461bcd60e51b815260206004820152601f60248201527f496e73756666696369656e7420416c6c6f77616e636520696e20746f6b656e00604482015290519081900360640190fd5b6001600160a01b0384166000908152600e602090815260408083203384529091529020546106b3908363ffffffff610bbd16565b6001600160a01b0385166000908152600e602090815260408083203384529091529020555b6106e3848484610c06565b610726576040805162461bcd60e51b815260206004820152600f60248201526e151c985b9cd9995c8811985a5b1959608a1b604482015290519081900360640190fd5b5060019392505050565b60025481565b60006001600160a01b03831661077d5760405162461bcd60e51b8152600401808060200182810382526036815260200180610f6e6036913960400191505060405180910390fd5b336000908152600e602090815260408083206001600160a01b03871684529091529020546107b1908363ffffffff610d5816565b336000818152600e602090815260408083206001600160a01b0389168085529083529281902085905580519485525191937f8c5be1e5ebec7d5bd14f71427d1e84f3dd0314c0f7b2291e5b200ac8c7c3b925929081900390910190a350600192915050565b6008546001600160a01b031681565b60045490565b6001600160a01b03166000908152600d602052604090205490565b6005546001600160a01b031681565b60018054604080516020600284861615610100026000190190941693909304601f810184900484028201840190925281815292918301828280156104a05780601f10610475576101008083540402835291602001916104a0565b6005546001600160a01b031633146108f85760405162461bcd60e51b8152600401808060200182810382526029815260200180610f456029913960400191505060405180910390fd5b600c80546001600160a01b0390921661010002610100600160a81b0319909216919091179055565b60006001600160a01b0383166109675760405162461bcd60e51b8152600401808060200182810382526036815260200180610f6e6036913960400191505060405180910390fd5b336000908152600e602090815260408083206001600160a01b03871684529091529020546107b1908363ffffffff610bbd16565b60006109a8338484610c06565b6109ee576040805162461bcd60e51b8152602060048201526012602482015271151c985b9cd858dd1a5bdb8811985a5b195960721b604482015290519081900360640190fd5b50600192915050565b600c5460ff1690565b60095481565b6005546001600160a01b03163314610a4f5760405162461bcd60e51b8152600401808060200182810382526029815260200180610f456029913960400191505060405180910390fd5b336000908152600d6020526040902054811115610a9d5760405162461bcd60e51b8152600401808060200182810382526023815260200180610fa46023913960400191505060405180910390fd5b600455565b6007546001600160a01b031681565b6001600160a01b039182166000908152600e6020908152604080832093909416825291909152205490565b6005546001600160a01b0316331480610aff57506005546001600160a01b031632145b610b3a5760405162461bcd60e51b815260040180806020018281038252603a815260200180610fe8603a913960400191505060405180910390fd5b600c805460ff19811660ff90911615179055565b600b805460408051602060026001851615610100026000190190941693909304601f810184900484028201840190925281815292918301828280156104a05780601f10610475576101008083540402835291602001916104a0565b600c5461010090046001600160a01b031681565b6000610bff83836040518060400160405280601e81526020017f536166654d6174683a207375627472616374696f6e206f766572666c6f770000815250610db2565b9392505050565b60006001600160a01b038316610c63576040805162461bcd60e51b815260206004820152601f60248201527f43616e6e6f74207472616e7366657220746f2030783030206164647265737300604482015290519081900360640190fd5b6001600160a01b0384166000908152600d6020526040902054610c8c908363ffffffff610bbd16565b6001600160a01b038086166000908152600d60205260408082209390935590851681522054610cc1908363ffffffff610d5816565b6001600160a01b038085166000908152600d602052604090209190915560055485821691161415610d0357600454610cff908363ffffffff610bbd16565b6004555b826001600160a01b0316846001600160a01b03167fddf252ad1be2c89b69c2b068fc378daa952ba7f163c4a11628f55a4df523b3ef846040518082815260200191505060405180910390a35060019392505050565b600082820183811015610bff576040805162461bcd60e51b815260206004820152601b60248201527f536166654d6174683a206164646974696f6e206f766572666c6f770000000000604482015290519081900360640190fd5b60008184841115610e415760405162461bcd60e51b81526004018080602001828103825283818151815260200191508051906020019080838360005b83811015610e06578181015183820152602001610dee565b50505050905090810190601f168015610e335780820380516001836020036101000a031916815260200191505b509250505060405180910390fd5b505050900390565b600082610e58575060006105a0565b82820282848281610e6557fe5b0414610bff5760405162461bcd60e51b8152600401808060200182810382526021815260200180610fc76021913960400191505060405180910390fd5b6000610bff83836040518060400160405280601a81526020017f536166654d6174683a206469766973696f6e206279207a65726f00000000000081525060008183610f2e5760405162461bcd60e51b8152602060048201818152835160248401528351909283926044909101919085019080838360008315610e06578181015183820152602001610dee565b506000838581610f3a57fe5b049594505050505056fe4f4e4c5920434f4e5452414354204f574e45522043414e20504552464f524d204f5045524154494f4e5370656e64696e672064656c65676174696f6e2063616e6e6f742062652061737369676e656420746f203078303020616464726573734e6f7420656e6f75676820746f6b656e732c20636f6e7369646572206d696e74696e67536166654d6174683a206d756c7469706c69636174696f6e206f766572666c6f774f6e6c7920746865206f776e6572206f72206f776e6572207669612065786368616e67652063616e206368616e6765207468652073746174757343616c6c20696e637265617365416c6c6f77616e63652829206f72206465637265617365416c6c6f77616e636528292066756e6374696f6e7320726573706563746976656c79a265627a7a723158204d34d53df97bb5ee80866f52cc9ec6703eb5893fda573e61e9b6d5dfb2cb0e0964736f6c63430005100032536166654d6174683a206d756c7469706c69636174696f6e206f766572666c6f775265736572766520616e642043726561746f7220616c6c6f636174696f6e732063616e6e6f74206265206d6f7265207468616e2031303025",
  "source": "pragma solidity =0.5.16;\n\nimport \"../_supportingContracts/IERC20.sol\";\nimport \"../_supportingContracts/SafeMath.sol\";\n\n/**\n * @title Standard ERC20 token\n *\n * @dev Implementation of the basic standard token.\n * https://github.com/ethereum/EIPs/blob/master/EIPS/eip-20.md\n * Originally based on code by FirstBlood:\n * https://github.com/Firstbloodio/token/blob/master/smart_contract/FirstBloodToken.sol\n *\n * This implementation emits additional Approval events, allowing applications to reconstruct the allowance status for\n * all accounts just by listening to said events. Note that this isn't required by the specification, and other\n * compliant implementations may not do it.\n */\ncontract CelebrityToken is IERC20 {\n    using SafeMath for uint256;\n    string public name;\n    string public symbol;\n    uint256 public decimals;\n    uint256 private _totalSupply;\n    uint256 private _totalCirculation;\n\n    address public owner;\n    address public creator;\n    address public reserve;\n    address public founder;\n    uint8 private percentageAllocationToCreator;\n    uint8 private percentageAllocationToReserve;\n    uint8 private percentageAllocationToFounder;\n    uint256 public id;\n    string public vertical;\n    string public category;\n    bool private tradingAllowedOnCelebrityExchange;\n    address public CelebrityExchangeAddress;\n\n    mapping(address => uint256) private _balances;\n\n    mapping(address => mapping(address => uint256)) private _allowed;\n\n    event Failure(\n        string contractName,\n        string operation,\n        string error,\n        string info,\n        address user,\n        uint256 blockNumber\n    );\n\n    modifier onlyOwner() {\n        require(\n            msg.sender == owner,\n            \"ONLY CONTRACT OWNER CAN PERFORM OPERATION\"\n        );\n        _;\n    }\n\n    /**\n     * @dev Constructor to initialize the ERC-20 token\n     * @param _name Name of the token\n     * @param _symbol Symbol used for trading and wallet display purposes\n     * @param _supply Total supply of the tokens\n     */\n    constructor(\n        uint256 _id,\n        string memory _vertical,\n        string memory _category,\n        string memory _name,\n        string memory _symbol,\n        uint256 _supply,\n        address _owner,\n        address _creator,\n        address[3] memory CelebrityExchangeAddressReserveAndFounder,\n        uint8[3] memory percentageAllocationToCreatorReserveAndFounder\n    ) public {\n        name = _name;\n        symbol = _symbol;\n        decimals = 18;\n        _totalSupply = _supply;\n        id = _id;\n        owner = _owner;\n        creator = _creator;\n        founder = CelebrityExchangeAddressReserveAndFounder[2];\n        reserve = CelebrityExchangeAddressReserveAndFounder[1];\n        require(\n            percentageAllocationToCreatorReserveAndFounder[0] <= 100 &&\n                percentageAllocationToCreatorReserveAndFounder[1] <= 100 &&\n                percentageAllocationToCreatorReserveAndFounder[2] <= 100,\n            \"Reserve and Creator allocations cannot be more than 100%\"\n        );\n        percentageAllocationToCreator = percentageAllocationToCreatorReserveAndFounder[\n            0\n        ];\n        percentageAllocationToReserve = percentageAllocationToCreatorReserveAndFounder[\n            1\n        ];\n        percentageAllocationToFounder = percentageAllocationToCreatorReserveAndFounder[\n            2\n        ];\n        // += just in case all 3 addresses or any 2 addresses are the same\n        _balances[reserve] += _totalSupply\n            .mul(percentageAllocationToReserve)\n            .div(100);\n        _balances[creator] += _totalSupply\n            .mul(percentageAllocationToCreator)\n            .div(100);\n        _balances[founder] += _totalSupply\n            .mul(percentageAllocationToFounder)\n            .div(100);\n        _balances[owner] += _totalSupply\n            .mul(\n            100 -\n                (percentageAllocationToReserve) -\n                (percentageAllocationToCreator)\n        )\n            .div(100);\n        _totalCirculation = _balances[owner];\n        vertical = _vertical;\n        category = _category;\n        CelebrityExchangeAddress = CelebrityExchangeAddressReserveAndFounder[0];\n    }\n\n    /**\n     * @dev Total number of tokens in existence\n     */\n    function totalSupply() public view returns (uint256) {\n        return _totalSupply;\n    }\n\n    /**\n     * @dev Total number of tokens in circulation\n     */\n    function totalCirculation() public view returns (uint256) {\n        return _totalCirculation;\n    }\n\n    function toggeleAllowTradingOnCelebrityExchange() public {\n        require(\n            msg.sender == owner || tx.origin == owner,\n            \"Only the owner or owner via exchange can change the status\"\n        );\n        tradingAllowedOnCelebrityExchange = !tradingAllowedOnCelebrityExchange;\n    }\n\n    function isTradingAllowedOnCelebrityExchange() public view returns (bool) {\n        return tradingAllowedOnCelebrityExchange;\n    }\n\n    /**\n     * @dev Gets the balance of the specified address.\n     * @param user The address to query the balance of.\n     * @return An uint256 representing the amount owned by the passed address.\n     */\n    function balanceOf(address user) public view returns (uint256) {\n        return _balances[user];\n    }\n\n    /**\n     * @dev Function to check the amount of tokens that a user is allowed to a spender.\n     * @param user address The address which owns the funds.\n     * @param spender address The address which will spend the funds.\n     * @return A uint256 specifying the amount of tokens still available for the spender.\n     */\n    function allowance(address user, address spender)\n        public\n        view\n        returns (uint256)\n    {\n        return _allowed[user][spender];\n    }\n\n    /**\n     * @dev Transfer token for a specified address\n     * @param to The address to transfer to.\n     * @param value The amount to be transferred.\n     */\n    function transfer(address to, uint256 value) public returns (bool) {\n        require(_transfer(msg.sender, to, value), \"Transaction Failed\");\n        return true;\n    }\n\n    /**\n     * @dev Approve the passed address to spend the specified amount of tokens on behalf of msg.sender.\n     * Beware that changing an allowance with this method brings the risk that someone may use both the old\n     * and the new allowance by unfortunate transaction ordering. One possible solution to mitigate this\n     * race condition is to first reduce the spender's allowance to 0 and set the desired value afterwards:\n     * https://github.com/ethereum/EIPs/issues/20#issuecomment-263524729\n     * @param spender The address which will spend the funds.\n     * @param value The amount of tokens to be spent.\n     */\n    function approve(address spender, uint256 value) public returns (bool) {\n        require(\n            spender != address(0),\n            \"Spending delegation cannot be assigned to 0x00 address\"\n        );\n        // approve() should only be called when setting an initial allowance,\n        // or when resetting it to zero. To increase and decrease it, use\n        // 'increaseAllowance' and 'decreaseAllowance'\n        require(\n            value == 0 || (allowance(msg.sender, spender) == 0),\n            \"Call increaseAllowance() or decreaseAllowance() functions respectively\"\n        );\n        _allowed[msg.sender][spender] = value;\n        emit Approval(msg.sender, spender, value);\n        return true;\n    }\n\n    /**\n     * @dev Transfer tokens from one address to another.\n     * Note that while this function emits an Approval event, this is not required as per the specification,\n     * and other compliant implementations may not emit the event.\n     * @param from address The address which you want to send tokens from\n     * @param to address The address which you want to transfer to\n     * @param value uint256 the amount of tokens to be transferred\n     */\n    function transferFrom(\n        address from,\n        address to,\n        uint256 value\n    ) public returns (bool) {\n        if (msg.sender != CelebrityExchangeAddress) {\n            // Allow transfer to exchange even if not approved\n            require(\n                allowance(from, msg.sender) >= value,\n                \"Insufficient Allowance in token\"\n            );\n            _allowed[from][msg.sender] = _allowed[from][msg.sender].sub(value);\n        }\n        require(_transfer(from, to, value), \"Transfer Failed\");\n        return true;\n    }\n\n    /**\n     * @dev Increase the amount of tokens that a user allowed to a spender.\n     * approve should be called when allowed_[_spender] == 0. To increment\n     * allowed value is better to use this function to avoid 2 calls (and wait until\n     * the first transaction is mined)\n     * From MonolithDAO Token.sol\n     * Emits an Approval event.\n     * @param spender The address which will spend the funds.\n     * @param addedValue The amount of tokens to increase the allowance by.\n     */\n    function increaseAllowance(address spender, uint256 addedValue)\n        public\n        returns (bool)\n    {\n        require(\n            spender != address(0),\n            \"Spending delegation cannot be assigned to 0x00 address\"\n        );\n\n        _allowed[msg.sender][spender] = _allowed[msg.sender][spender].add(\n            addedValue\n        );\n        emit Approval(msg.sender, spender, _allowed[msg.sender][spender]);\n        return true;\n    }\n\n    /**\n     * @dev Decrease the amount of tokens that a user allowed to a spender.\n     * approve should be called when allowed_[_spender] == 0. To decrement\n     * allowed value is better to use this function to avoid 2 calls (and wait until\n     * the first transaction is mined)\n     * From MonolithDAO Token.sol\n     * Emits an Approval event.\n     * @param spender The address which will spend the funds.\n     * @param subtractedValue The amount of tokens to decrease the allowance by.\n     */\n    function decreaseAllowance(address spender, uint256 subtractedValue)\n        public\n        returns (bool)\n    {\n        require(\n            spender != address(0),\n            \"Spending delegation cannot be assigned to 0x00 address\"\n        );\n\n        _allowed[msg.sender][spender] = _allowed[msg.sender][spender].sub(\n            subtractedValue\n        );\n        emit Approval(msg.sender, spender, _allowed[msg.sender][spender]);\n        return true;\n    }\n\n    /**\n     * @dev Transfer token for a specified addresses\n     * @param from The address to transfer from.\n     * @param to The address to transfer to.\n     * @param value The amount to be transferred.\n     */\n    function _transfer(\n        address from,\n        address to,\n        uint256 value\n    ) internal returns (bool) {\n        require(to != address(0), \"Cannot transfer to 0x00 address\");\n        _balances[from] = _balances[from].sub(value);\n        _balances[to] = _balances[to].add(value);\n        if (from == owner) {\n            _totalCirculation = _totalCirculation.sub(value);\n        }\n        emit Transfer(from, to, value);\n        return true;\n    }\n\n    /**\n     * @dev Internal function that mints an amount of the token and assigns it to\n     * an account. This encapsulates the modification of balances such that the\n     * proper events are emitted.\n     * @param account The account that will receive the created tokens.\n     * @param value The amount that will be created.\n     */\n    function _mint(address account, uint256 value) internal onlyOwner {\n        require(account != address(0), \"Cannot mint to 0x00 address\");\n        _totalSupply = _totalSupply.add(value);\n        _balances[account] = _balances[account].add(value);\n        emit Transfer(address(0), account, value);\n    }\n\n    /**\n     * @dev Internal function that burns an amount of the token of a given\n     * account.\n     * @param account The account whose tokens will be burnt.\n     * @param value The amount that will be burnt.\n     */\n    function _burn(address account, uint256 value) internal onlyOwner {\n        require(account != address(0), \"Cannot burn from 0x00 address\");\n        _totalSupply = _totalSupply.sub(value);\n        _balances[account] = _balances[account].sub(value);\n        emit Transfer(account, address(0), value);\n    }\n\n    /**\n     * @dev Internal function that burns an amount of the token of a given\n     * account, deducting from the sender's allowance for said account. Uses the\n     * internal burn function.\n     * Emits an Approval event (reflecting the reduced allowance).\n     * @param account The account whose tokens will be burnt.\n     * @param value The amount that will be burnt.\n     */\n    function _burnFrom(address account, uint256 value) internal onlyOwner {\n        _allowed[account][msg.sender] = _allowed[account][msg.sender].sub(\n            value\n        );\n        _burn(account, value);\n        emit Approval(account, msg.sender, _allowed[account][msg.sender]);\n    }\n\n    function changeExchangeAddress(address _CelebrityExchangeAddress)\n        public\n        onlyOwner\n    {\n        CelebrityExchangeAddress = _CelebrityExchangeAddress;\n    }\n\n    function updateTotalCirculation(uint256 _newTotalCirculation)\n        public\n        onlyOwner\n    {\n        require(\n            _newTotalCirculation <= _balances[msg.sender],\n            \"Not enough tokens, consider minting\"\n        );\n        _totalCirculation = _newTotalCirculation;\n    }\n}\n",
  "sourcePath": "/Users/raghu/Fanance/fanance-dapp/contracts/celebrity-contracts/CelebrityERC20Token.sol",
  "compiler": {
    "name": "solc",
    "version": "0.5.16+commit.9c3226ce.Emscripten.clang"
  },
  "schemaVersion": "3.2.3",
  "updatedAt": "2021-01-02T10:46:49.516Z",
  "devdoc": {
    "details": "Implementation of the basic standard token. https://github.com/ethereum/EIPs/blob/master/EIPS/eip-20.md Originally based on code by FirstBlood: https://github.com/Firstbloodio/token/blob/master/smart_contract/FirstBloodToken.sol * This implementation emits additional Approval events, allowing applications to reconstruct the allowance status for all accounts just by listening to said events. Note that this isn't required by the specification, and other compliant implementations may not do it.",
    "methods": {
      "allowance(address,address)": {
        "details": "Function to check the amount of tokens that a user is allowed to a spender.",
        "params": {
          "spender": "address The address which will spend the funds.",
          "user": "address The address which owns the funds."
        },
        "return": "A uint256 specifying the amount of tokens still available for the spender."
      },
      "approve(address,uint256)": {
        "details": "Approve the passed address to spend the specified amount of tokens on behalf of msg.sender. Beware that changing an allowance with this method brings the risk that someone may use both the old and the new allowance by unfortunate transaction ordering. One possible solution to mitigate this race condition is to first reduce the spender's allowance to 0 and set the desired value afterwards: https://github.com/ethereum/EIPs/issues/20#issuecomment-263524729",
        "params": {
          "spender": "The address which will spend the funds.",
          "value": "The amount of tokens to be spent."
        }
      },
      "balanceOf(address)": {
        "details": "Gets the balance of the specified address.",
        "params": {
          "user": "The address to query the balance of."
        },
        "return": "An uint256 representing the amount owned by the passed address."
      },
      "constructor": {
        "details": "Constructor to initialize the ERC-20 token",
        "params": {
          "_name": "Name of the token",
          "_supply": "Total supply of the tokens",
          "_symbol": "Symbol used for trading and wallet display purposes"
        }
      },
      "decreaseAllowance(address,uint256)": {
        "details": "Decrease the amount of tokens that a user allowed to a spender. approve should be called when allowed_[_spender] == 0. To decrement allowed value is better to use this function to avoid 2 calls (and wait until the first transaction is mined) From MonolithDAO Token.sol Emits an Approval event.",
        "params": {
          "spender": "The address which will spend the funds.",
          "subtractedValue": "The amount of tokens to decrease the allowance by."
        }
      },
      "increaseAllowance(address,uint256)": {
        "details": "Increase the amount of tokens that a user allowed to a spender. approve should be called when allowed_[_spender] == 0. To increment allowed value is better to use this function to avoid 2 calls (and wait until the first transaction is mined) From MonolithDAO Token.sol Emits an Approval event.",
        "params": {
          "addedValue": "The amount of tokens to increase the allowance by.",
          "spender": "The address which will spend the funds."
        }
      },
      "totalCirculation()": {
        "details": "Total number of tokens in circulation"
      },
      "totalSupply()": {
        "details": "Total number of tokens in existence"
      },
      "transfer(address,uint256)": {
        "details": "Transfer token for a specified address",
        "params": {
          "to": "The address to transfer to.",
          "value": "The amount to be transferred."
        }
      },
      "transferFrom(address,address,uint256)": {
        "details": "Transfer tokens from one address to another. Note that while this function emits an Approval event, this is not required as per the specification, and other compliant implementations may not emit the event.",
        "params": {
          "from": "address The address which you want to send tokens from",
          "to": "address The address which you want to transfer to",
          "value": "uint256 the amount of tokens to be transferred"
        }
      }
    },
    "title": "Standard ERC20 token"
  },
  "userdoc": {
    "methods": {}
  }
}