{
  "contractName": "CelebrityOwnerToken",
  "abi": [
    {
      "inputs": [
        {
          "internalType": "string",
          "name": "_name",
          "type": "string"
        },
        {
          "internalType": "string",
          "name": "_symbol",
          "type": "string"
        }
      ],
      "payable": false,
      "stateMutability": "nonpayable",
      "type": "constructor"
    },
    {
      "anonymous": false,
      "inputs": [
        {
          "indexed": true,
          "internalType": "address",
          "name": "owner",
          "type": "address"
        },
        {
          "indexed": true,
          "internalType": "address",
          "name": "approved",
          "type": "address"
        },
        {
          "indexed": true,
          "internalType": "uint256",
          "name": "tokenId",
          "type": "uint256"
        }
      ],
      "name": "Approval",
      "type": "event"
    },
    {
      "anonymous": false,
      "inputs": [
        {
          "indexed": true,
          "internalType": "address",
          "name": "owner",
          "type": "address"
        },
        {
          "indexed": true,
          "internalType": "address",
          "name": "operator",
          "type": "address"
        },
        {
          "indexed": false,
          "internalType": "bool",
          "name": "approved",
          "type": "bool"
        }
      ],
      "name": "ApprovalForAll",
      "type": "event"
    },
    {
      "anonymous": false,
      "inputs": [
        {
          "indexed": true,
          "internalType": "address",
          "name": "previousOwner",
          "type": "address"
        },
        {
          "indexed": true,
          "internalType": "address",
          "name": "newOwner",
          "type": "address"
        }
      ],
      "name": "OwnershipTransferred",
      "type": "event"
    },
    {
      "anonymous": false,
      "inputs": [
        {
          "indexed": true,
          "internalType": "address",
          "name": "from",
          "type": "address"
        },
        {
          "indexed": true,
          "internalType": "address",
          "name": "to",
          "type": "address"
        },
        {
          "indexed": true,
          "internalType": "uint256",
          "name": "tokenId",
          "type": "uint256"
        }
      ],
      "name": "Transfer",
      "type": "event"
    },
    {
      "constant": false,
      "inputs": [
        {
          "internalType": "address",
          "name": "to",
          "type": "address"
        },
        {
          "internalType": "uint256",
          "name": "tokenId",
          "type": "uint256"
        }
      ],
      "name": "approve",
      "outputs": [],
      "payable": false,
      "stateMutability": "nonpayable",
      "type": "function"
    },
    {
      "constant": true,
      "inputs": [
        {
          "internalType": "address",
          "name": "owner",
          "type": "address"
        }
      ],
      "name": "balanceOf",
      "outputs": [
        {
          "internalType": "uint256",
          "name": "",
          "type": "uint256"
        }
      ],
      "payable": false,
      "stateMutability": "view",
      "type": "function"
    },
    {
      "constant": true,
      "inputs": [],
      "name": "baseURI",
      "outputs": [
        {
          "internalType": "string",
          "name": "",
          "type": "string"
        }
      ],
      "payable": false,
      "stateMutability": "view",
      "type": "function"
    },
    {
      "constant": true,
      "inputs": [
        {
          "internalType": "uint256",
          "name": "tokenId",
          "type": "uint256"
        }
      ],
      "name": "getApproved",
      "outputs": [
        {
          "internalType": "address",
          "name": "",
          "type": "address"
        }
      ],
      "payable": false,
      "stateMutability": "view",
      "type": "function"
    },
    {
      "constant": true,
      "inputs": [
        {
          "internalType": "address",
          "name": "owner",
          "type": "address"
        },
        {
          "internalType": "address",
          "name": "operator",
          "type": "address"
        }
      ],
      "name": "isApprovedForAll",
      "outputs": [
        {
          "internalType": "bool",
          "name": "",
          "type": "bool"
        }
      ],
      "payable": false,
      "stateMutability": "view",
      "type": "function"
    },
    {
      "constant": true,
      "inputs": [],
      "name": "isOwner",
      "outputs": [
        {
          "internalType": "bool",
          "name": "",
          "type": "bool"
        }
      ],
      "payable": false,
      "stateMutability": "view",
      "type": "function"
    },
    {
      "constant": true,
      "inputs": [],
      "name": "name",
      "outputs": [
        {
          "internalType": "string",
          "name": "",
          "type": "string"
        }
      ],
      "payable": false,
      "stateMutability": "view",
      "type": "function"
    },
    {
      "constant": true,
      "inputs": [],
      "name": "owner",
      "outputs": [
        {
          "internalType": "address",
          "name": "",
          "type": "address"
        }
      ],
      "payable": false,
      "stateMutability": "view",
      "type": "function"
    },
    {
      "constant": true,
      "inputs": [
        {
          "internalType": "uint256",
          "name": "tokenId",
          "type": "uint256"
        }
      ],
      "name": "ownerOf",
      "outputs": [
        {
          "internalType": "address",
          "name": "",
          "type": "address"
        }
      ],
      "payable": false,
      "stateMutability": "view",
      "type": "function"
    },
    {
      "constant": false,
      "inputs": [],
      "name": "renounceOwnership",
      "outputs": [],
      "payable": false,
      "stateMutability": "nonpayable",
      "type": "function"
    },
    {
      "constant": false,
      "inputs": [
        {
          "internalType": "address",
          "name": "from",
          "type": "address"
        },
        {
          "internalType": "address",
          "name": "to",
          "type": "address"
        },
        {
          "internalType": "uint256",
          "name": "tokenId",
          "type": "uint256"
        }
      ],
      "name": "safeTransferFrom",
      "outputs": [],
      "payable": false,
      "stateMutability": "nonpayable",
      "type": "function"
    },
    {
      "constant": false,
      "inputs": [
        {
          "internalType": "address",
          "name": "from",
          "type": "address"
        },
        {
          "internalType": "address",
          "name": "to",
          "type": "address"
        },
        {
          "internalType": "uint256",
          "name": "tokenId",
          "type": "uint256"
        },
        {
          "internalType": "bytes",
          "name": "_data",
          "type": "bytes"
        }
      ],
      "name": "safeTransferFrom",
      "outputs": [],
      "payable": false,
      "stateMutability": "nonpayable",
      "type": "function"
    },
    {
      "constant": false,
      "inputs": [
        {
          "internalType": "address",
          "name": "to",
          "type": "address"
        },
        {
          "internalType": "bool",
          "name": "approved",
          "type": "bool"
        }
      ],
      "name": "setApprovalForAll",
      "outputs": [],
      "payable": false,
      "stateMutability": "nonpayable",
      "type": "function"
    },
    {
      "constant": true,
      "inputs": [
        {
          "internalType": "bytes4",
          "name": "interfaceId",
          "type": "bytes4"
        }
      ],
      "name": "supportsInterface",
      "outputs": [
        {
          "internalType": "bool",
          "name": "",
          "type": "bool"
        }
      ],
      "payable": false,
      "stateMutability": "view",
      "type": "function"
    },
    {
      "constant": true,
      "inputs": [],
      "name": "symbol",
      "outputs": [
        {
          "internalType": "string",
          "name": "",
          "type": "string"
        }
      ],
      "payable": false,
      "stateMutability": "view",
      "type": "function"
    },
    {
      "constant": true,
      "inputs": [
        {
          "internalType": "uint256",
          "name": "tokenId",
          "type": "uint256"
        }
      ],
      "name": "tokenURI",
      "outputs": [
        {
          "internalType": "string",
          "name": "",
          "type": "string"
        }
      ],
      "payable": false,
      "stateMutability": "view",
      "type": "function"
    },
    {
      "constant": false,
      "inputs": [
        {
          "internalType": "address",
          "name": "from",
          "type": "address"
        },
        {
          "internalType": "address",
          "name": "to",
          "type": "address"
        },
        {
          "internalType": "uint256",
          "name": "tokenId",
          "type": "uint256"
        }
      ],
      "name": "transferFrom",
      "outputs": [],
      "payable": false,
      "stateMutability": "nonpayable",
      "type": "function"
    },
    {
      "constant": false,
      "inputs": [
        {
          "internalType": "address",
          "name": "newOwner",
          "type": "address"
        }
      ],
      "name": "transferOwnership",
      "outputs": [],
      "payable": false,
      "stateMutability": "nonpayable",
      "type": "function"
    },
    {
      "constant": false,
      "inputs": [
        {
          "internalType": "address",
          "name": "_to",
          "type": "address"
        },
        {
          "internalType": "uint256",
          "name": "_tokenId",
          "type": "uint256"
        },
        {
          "internalType": "string",
          "name": "_tokenURI",
          "type": "string"
        }
      ],
      "name": "mintUniqueTokenTo",
      "outputs": [],
      "payable": false,
      "stateMutability": "nonpayable",
      "type": "function"
    },
    {
      "constant": false,
      "inputs": [
        {
          "internalType": "string",
          "name": "_baseURI",
          "type": "string"
        }
      ],
      "name": "setBaseURI",
      "outputs": [],
      "payable": false,
      "stateMutability": "nonpayable",
      "type": "function"
    }
  ],
  "bytecode": "0x60806040523480156200001157600080fd5b5060405162001f4c38038062001f4c833981810160405260408110156200003757600080fd5b81019080805160405193929190846401000000008211156200005857600080fd5b9083019060208201858111156200006e57600080fd5b82516401000000008111828201881017156200008957600080fd5b82525081516020918201929091019080838360005b83811015620000b85781810151838201526020016200009e565b50505050905090810190601f168015620000e65780820380516001836020036101000a031916815260200191505b50604052602001805160405193929190846401000000008211156200010a57600080fd5b9083019060208201858111156200012057600080fd5b82516401000000008111828201881017156200013b57600080fd5b82525081516020918201929091019080838360005b838110156200016a57818101518382015260200162000150565b50505050905090810190601f168015620001985780820380516001836020036101000a031916815260200191505b5060405250839150829050620001be6301ffc9a760e01b6001600160e01b03620002a216565b620001d96380ac58cd60e01b6001600160e01b03620002a216565b8151620001ee90600590602085019062000327565b5080516200020490600690602084019062000327565b5062000220635b5e139f60e01b6001600160e01b03620002a216565b5050600980546001600160a01b0319163317908190556040516001600160a01b0391909116906000907f8be0079c531659141344cd1fd0a4f28419497f9722a3daafe3b4186f6b6457e0908290a381516200028390600a90602085019062000327565b5080516200029990600b90602084019062000327565b505050620003cc565b6001600160e01b0319808216141562000302576040805162461bcd60e51b815260206004820152601c60248201527f4552433136353a20696e76616c696420696e7465726661636520696400000000604482015290519081900360640190fd5b6001600160e01b0319166000908152602081905260409020805460ff19166001179055565b828054600181600116156101000203166002900490600052602060002090601f016020900481019282601f106200036a57805160ff19168380011785556200039a565b828001600101855582156200039a579182015b828111156200039a5782518255916020019190600101906200037d565b50620003a8929150620003ac565b5090565b620003c991905b80821115620003a85760008155600101620003b3565b90565b611b7080620003dc6000396000f3fe608060405234801561001057600080fd5b506004361061012c5760003560e01c806370a08231116100ad578063a22cb46511610071578063a22cb4651461049a578063b88d4fde146104c8578063c87b56dd1461058e578063e985e9c5146105ab578063f2fde38b146105d95761012c565b806370a0823114610442578063715018a61461047a5780638da5cb5b146104825780638f32d59b1461048a57806395d89b41146104925761012c565b806326dd860a116100f457806326dd860a1461028657806342842e0e1461034157806355f804b3146103775780636352211e1461041d5780636c0360eb1461043a5761012c565b806301ffc9a71461013157806306fdde031461016c578063081812fc146101e9578063095ea7b31461022257806323b872dd14610250575b600080fd5b6101586004803603602081101561014757600080fd5b50356001600160e01b0319166105ff565b604080519115158252519081900360200190f35b610174610622565b6040805160208082528351818301528351919283929083019185019080838360005b838110156101ae578181015183820152602001610196565b50505050905090810190601f1680156101db5780820380516001836020036101000a031916815260200191505b509250505060405180910390f35b610206600480360360208110156101ff57600080fd5b50356106b0565b604080516001600160a01b039092168252519081900360200190f35b61024e6004803603604081101561023857600080fd5b506001600160a01b038135169060200135610712565b005b61024e6004803603606081101561026657600080fd5b506001600160a01b0381358116916020810135909116906040013561083a565b61024e6004803603606081101561029c57600080fd5b6001600160a01b03823516916020810135918101906060810160408201356401000000008111156102cc57600080fd5b8201836020820111156102de57600080fd5b8035906020019184600183028401116401000000008311171561030057600080fd5b91908080601f016020809104026020016040519081016040528093929190818152602001838380828437600092019190915250929550610896945050505050565b61024e6004803603606081101561035757600080fd5b506001600160a01b038135811691602081013590911690604001356108ea565b61024e6004803603602081101561038d57600080fd5b8101906020810181356401000000008111156103a857600080fd5b8201836020820111156103ba57600080fd5b803590602001918460018302840111640100000000831117156103dc57600080fd5b91908080601f016020809104026020016040519081016040528093929190818152602001838380828437600092019190915250929550610905945050505050565b6102066004803603602081101561043357600080fd5b5035610954565b6101746109ae565b6104686004803603602081101561045857600080fd5b50356001600160a01b0316610a45565b60408051918252519081900360200190f35b61024e610aad565b610206610b3a565b610158610b49565b610174610b5a565b61024e600480360360408110156104b057600080fd5b506001600160a01b0381351690602001351515610bb5565b61024e600480360360808110156104de57600080fd5b6001600160a01b0382358116926020810135909116916040820135919081019060808101606082013564010000000081111561051957600080fd5b82018360208201111561052b57600080fd5b8035906020019184600183028401116401000000008311171561054d57600080fd5b91908080601f016020809104026020016040519081016040528093929190818152602001838380828437600092019190915250929550610cba945050505050565b610174600480360360208110156105a457600080fd5b5035610d12565b610158600480360360408110156105c157600080fd5b506001600160a01b0381358116916020013516610ede565b61024e600480360360208110156105ef57600080fd5b50356001600160a01b0316610f0c565b6001600160e01b0319811660009081526020819052604090205460ff165b919050565b600a805460408051602060026001851615610100026000190190941693909304601f810184900484028201840190925281815292918301828280156106a85780601f1061067d576101008083540402835291602001916106a8565b820191906000526020600020905b81548152906001019060200180831161068b57829003601f168201915b505050505081565b60006106bb82610f58565b6106f65760405162461bcd60e51b815260040180806020018281038252602c815260200180611a0d602c913960400191505060405180910390fd5b506000908152600260205260409020546001600160a01b031690565b600061071d82610954565b9050806001600160a01b0316836001600160a01b031614156107705760405162461bcd60e51b8152600401808060200182810382526021815260200180611abd6021913960400191505060405180910390fd5b806001600160a01b0316610782610f75565b6001600160a01b031614806107a357506107a38161079e610f75565b610ede565b6107de5760405162461bcd60e51b81526004018080602001828103825260388152602001806119826038913960400191505060405180910390fd5b60008281526002602052604080822080546001600160a01b0319166001600160a01b0387811691821790925591518593918516917f8c5be1e5ebec7d5bd14f71427d1e84f3dd0314c0f7b2291e5b200ac8c7c3b92591a4505050565b61084b610845610f75565b82610f79565b6108865760405162461bcd60e51b8152600401808060200182810382526031815260200180611ade6031913960400191505060405180910390fd5b61089183838361101d565b505050565b61089e610b49565b6108d95760405162461bcd60e51b81526004018080602001828103825260298152602001806119096029913960400191505060405180910390fd5b6108e4838383611161565b50505050565b61089183838360405180602001604052806000815250610cba565b61090d610b49565b6109485760405162461bcd60e51b81526004018080602001828103825260298152602001806119096029913960400191505060405180910390fd5b61095181611181565b50565b6000818152600160205260408120546001600160a01b0316806109a85760405162461bcd60e51b81526004018080602001828103825260298152602001806119e46029913960400191505060405180910390fd5b92915050565b60078054604080516020601f6002600019610100600188161502019095169490940493840181900481028201810190925282815260609390929091830182828015610a3a5780601f10610a0f57610100808354040283529160200191610a3a565b820191906000526020600020905b815481529060010190602001808311610a1d57829003601f168201915b505050505090505b90565b60006001600160a01b038216610a8c5760405162461bcd60e51b815260040180806020018281038252602a8152602001806119ba602a913960400191505060405180910390fd5b6001600160a01b03821660009081526003602052604090206109a890611198565b610ab5610b49565b610af05760405162461bcd60e51b81526004018080602001828103825260298152602001806119096029913960400191505060405180910390fd5b6009546040516000916001600160a01b0316907f8be0079c531659141344cd1fd0a4f28419497f9722a3daafe3b4186f6b6457e0908390a3600980546001600160a01b0319169055565b6009546001600160a01b031690565b6009546001600160a01b0316331490565b600b805460408051602060026001851615610100026000190190941693909304601f810184900484028201840190925281815292918301828280156106a85780601f1061067d576101008083540402835291602001916106a8565b610bbd610f75565b6001600160a01b0316826001600160a01b03161415610c23576040805162461bcd60e51b815260206004820152601960248201527f4552433732313a20617070726f766520746f2063616c6c657200000000000000604482015290519081900360640190fd5b8060046000610c30610f75565b6001600160a01b03908116825260208083019390935260409182016000908120918716808252919093529120805460ff191692151592909217909155610c74610f75565b60408051841515815290516001600160a01b0392909216917f17307eab39ab6107e8899845ad3d59bd9653f200f220920489ca2b5937696c319181900360200190a35050565b610ccb610cc5610f75565b83610f79565b610d065760405162461bcd60e51b8152600401808060200182810382526031815260200180611ade6031913960400191505060405180910390fd5b6108e48484848461119c565b6060610d1d82610f58565b610d585760405162461bcd60e51b815260040180806020018281038252602f815260200180611a8e602f913960400191505060405180910390fd5b60008281526008602090815260409182902080548351601f6002600019610100600186161502019093169290920491820184900484028101840190945280845260609392830182828015610ded5780601f10610dc257610100808354040283529160200191610ded565b820191906000526020600020905b815481529060010190602001808311610dd057829003601f168201915b50505050509050805160001415610e1457505060408051602081019091526000815261061d565b6007816040516020018083805460018160011615610100020316600290048015610e755780601f10610e53576101008083540402835291820191610e75565b820191906000526020600020905b815481529060010190602001808311610e61575b5050825160208401908083835b60208310610ea15780518252601f199092019160209182019101610e82565b6001836020036101000a0380198251168184511680821785525050505050509050019250505060405160208183030381529060405291505061061d565b6001600160a01b03918216600090815260046020908152604080832093909416825291909152205460ff1690565b610f14610b49565b610f4f5760405162461bcd60e51b81526004018080602001828103825260298152602001806119096029913960400191505060405180910390fd5b610951816111ee565b6000908152600160205260409020546001600160a01b0316151590565b3390565b6000610f8482610f58565b610fbf5760405162461bcd60e51b815260040180806020018281038252602c815260200180611956602c913960400191505060405180910390fd5b6000610fca83610954565b9050806001600160a01b0316846001600160a01b031614806110055750836001600160a01b0316610ffa846106b0565b6001600160a01b0316145b8061101557506110158185610ede565b949350505050565b826001600160a01b031661103082610954565b6001600160a01b0316146110755760405162461bcd60e51b8152600401808060200182810382526029815260200180611a656029913960400191505060405180910390fd5b6001600160a01b0382166110ba5760405162461bcd60e51b81526004018080602001828103825260248152602001806119326024913960400191505060405180910390fd5b6110c38161128f565b6001600160a01b03831660009081526003602052604090206110e4906112ca565b6001600160a01b0382166000908152600360205260409020611105906112e1565b60008181526001602052604080822080546001600160a01b0319166001600160a01b0386811691821790925591518493918716917fddf252ad1be2c89b69c2b068fc378daa952ba7f163c4a11628f55a4df523b3ef91a4505050565b600061116d84846112ea565b6111778383611304565b5060019392505050565b805161119490600790602084019061183e565b5050565b5490565b6111a784848461101d565b6111b384848484611367565b6108e45760405162461bcd60e51b81526004018080602001828103825260328152602001806118d76032913960400191505060405180910390fd5b6001600160a01b0381166112335760405162461bcd60e51b815260040180806020018281038252602d815260200180611b0f602d913960400191505060405180910390fd5b6009546040516001600160a01b038084169216907f8be0079c531659141344cd1fd0a4f28419497f9722a3daafe3b4186f6b6457e090600090a3600980546001600160a01b0319166001600160a01b0392909216919091179055565b6000818152600260205260409020546001600160a01b03161561095157600090815260026020526040902080546001600160a01b0319169055565b80546112dd90600163ffffffff6115a216565b9055565b80546001019055565b6111948282604051806020016040528060008152506115eb565b61130d82610f58565b6113485760405162461bcd60e51b815260040180806020018281038252602c815260200180611a39602c913960400191505060405180910390fd5b600082815260086020908152604090912082516108919284019061183e565b600061137b846001600160a01b031661163d565b61138757506001611015565b600060606001600160a01b038616630a85bd0160e11b6113a5610f75565b89888860405160240180856001600160a01b03166001600160a01b03168152602001846001600160a01b03166001600160a01b0316815260200183815260200180602001828103825283818151815260200191508051906020019080838360005b8381101561141e578181015183820152602001611406565b50505050905090810190601f16801561144b5780820380516001836020036101000a031916815260200191505b5060408051601f198184030181529181526020820180516001600160e01b03166001600160e01b0319909a16999099178952518151919890975087965094509250829150849050835b602083106114b35780518252601f199092019160209182019101611494565b6001836020036101000a0380198251168184511680821785525050505050509050019150506000604051808303816000865af19150503d8060008114611515576040519150601f19603f3d011682016040523d82523d6000602084013e61151a565b606091505b50915091508161156b578051156115345780518082602001fd5b60405162461bcd60e51b81526004018080602001828103825260328152602001806118d76032913960400191505060405180910390fd5b600081806020019051602081101561158257600080fd5b50516001600160e01b031916630a85bd0160e11b14935061101592505050565b60006115e483836040518060400160405280601e81526020017f536166654d6174683a207375627472616374696f6e206f766572666c6f770000815250611676565b9392505050565b6115f5838361170d565b6116026000848484611367565b6108915760405162461bcd60e51b81526004018080602001828103825260328152602001806118d76032913960400191505060405180910390fd5b6000813f7fc5d2460186f7233c927e7db2dcc703c0e500b653ca82273b7bfad8045d85a470818114801590611015575050151592915050565b600081848411156117055760405162461bcd60e51b81526004018080602001828103825283818151815260200191508051906020019080838360005b838110156116ca5781810151838201526020016116b2565b50505050905090810190601f1680156116f75780820380516001836020036101000a031916815260200191505b509250505060405180910390fd5b505050900390565b6001600160a01b038216611768576040805162461bcd60e51b815260206004820181905260248201527f4552433732313a206d696e7420746f20746865207a65726f2061646472657373604482015290519081900360640190fd5b61177181610f58565b156117c3576040805162461bcd60e51b815260206004820152601c60248201527f4552433732313a20746f6b656e20616c7265616479206d696e74656400000000604482015290519081900360640190fd5b600081815260016020908152604080832080546001600160a01b0319166001600160a01b038716908117909155835260039091529020611802906112e1565b60405181906001600160a01b038416906000907fddf252ad1be2c89b69c2b068fc378daa952ba7f163c4a11628f55a4df523b3ef908290a45050565b828054600181600116156101000203166002900490600052602060002090601f016020900481019282601f1061187f57805160ff19168380011785556118ac565b828001600101855582156118ac579182015b828111156118ac578251825591602001919060010190611891565b506118b89291506118bc565b5090565b610a4291905b808211156118b857600081556001016118c256fe4552433732313a207472616e7366657220746f206e6f6e20455243373231526563656976657220696d706c656d656e7465724f4e4c5920434f4e5452414354204f574e45522043414e20504552464f524d204f5045524154494f4e4552433732313a207472616e7366657220746f20746865207a65726f20616464726573734552433732313a206f70657261746f7220717565727920666f72206e6f6e6578697374656e7420746f6b656e4552433732313a20617070726f76652063616c6c6572206973206e6f74206f776e6572206e6f7220617070726f76656420666f7220616c6c4552433732313a2062616c616e636520717565727920666f7220746865207a65726f20616464726573734552433732313a206f776e657220717565727920666f72206e6f6e6578697374656e7420746f6b656e4552433732313a20617070726f76656420717565727920666f72206e6f6e6578697374656e7420746f6b656e4552433732314d657461646174613a2055524920736574206f66206e6f6e6578697374656e7420746f6b656e4552433732313a207472616e73666572206f6620746f6b656e2074686174206973206e6f74206f776e4552433732314d657461646174613a2055524920717565727920666f72206e6f6e6578697374656e7420746f6b656e4552433732313a20617070726f76616c20746f2063757272656e74206f776e65724552433732313a207472616e736665722063616c6c6572206973206e6f74206f776e6572206e6f7220617070726f76656441444d494e20524f4c452043414e4e4f542042452041535349474e454420544f20307830302041444452455353a265627a7a72315820b1d48819f0016ca494f3b2f409dbd82de0cf0bdc4c7985a34154dc99b018fa7a64736f6c63430005100032",
  "source": "pragma solidity =0.5.16;\n\nimport \"../_supportingContracts/ERC721MetadataMintable.sol\";\nimport \"../_supportingContracts/Ownable.sol\";\n\ncontract CelebrityOwnerToken is ERC721MetadataMintable, Ownable {\n    string public name;\n    string public symbol;\n\n    constructor(string memory _name, string memory _symbol)\n        public\n        ERC721Metadata(_name, _symbol)\n    {\n        name = _name;\n        symbol = _symbol;\n    }\n\n    /**\n     * Custom accessor to create a unique token\n     */\n    function mintUniqueTokenTo(\n        address _to,\n        uint256 _tokenId,\n        string memory _tokenURI\n    ) public onlyOwner {\n        mintWithTokenURI(_to, _tokenId, _tokenURI);\n    }\n\n    /**\n     * Set Base URI for retrieving token details URL\n     */\n    function setBaseURI(string memory _baseURI) public onlyOwner {\n        _setBaseURI(_baseURI);\n    }\n}\n",
  "sourcePath": "/Users/raghu/Fanance/fanance-dapp/contracts/celebrity-contracts/CelebrityERC721Token.sol",
  "compiler": {
    "name": "solc",
    "version": "0.5.16+commit.9c3226ce.Emscripten.clang"
  },
  "schemaVersion": "3.2.3",
  "updatedAt": "2021-01-16T14:48:09.421Z",
  "networkType": "ethereum",
  "devdoc": {
    "methods": {
      "approve(address,uint256)": {
        "details": "Approves another address to transfer the given token ID The zero address indicates there is no approved address. There can only be one approved address per token at a given time. Can only be called by the token owner or an approved operator.",
        "params": {
          "to": "address to be approved for the given token ID",
          "tokenId": "uint256 ID of the token to be approved"
        }
      },
      "balanceOf(address)": {
        "details": "Gets the balance of the specified address.",
        "params": {
          "owner": "address to query the balance of"
        },
        "return": "uint256 representing the amount owned by the passed address"
      },
      "baseURI()": {
        "details": "Returns the base URI set via {_setBaseURI}. This will be automatically added as a preffix in {tokenURI} to each token's URI, when they are non-empty.     * _Available since v2.5.0._"
      },
      "getApproved(uint256)": {
        "details": "Gets the approved address for a token ID, or zero if no address set Reverts if the token ID does not exist.",
        "params": {
          "tokenId": "uint256 ID of the token to query the approval of"
        },
        "return": "address currently approved for the given token ID"
      },
      "isApprovedForAll(address,address)": {
        "details": "Tells whether an operator is approved by a given owner.",
        "params": {
          "operator": "operator address which you want to query the approval of",
          "owner": "owner address which you want to query the approval of"
        },
        "return": "bool whether the given operator is approved by the given owner"
      },
      "isOwner()": {
        "return": "true if `msg.sender` is the owner of the contract."
      },
      "owner()": {
        "return": "the address of the owner."
      },
      "ownerOf(uint256)": {
        "details": "Gets the owner of the specified token ID.",
        "params": {
          "tokenId": "uint256 ID of the token to query the owner of"
        },
        "return": "address currently marked as the owner of the given token ID"
      },
      "renounceOwnership()": {
        "details": "Allows the current owner to relinquish control of the contract."
      },
      "safeTransferFrom(address,address,uint256)": {
        "details": "Safely transfers the ownership of a given token ID to another address If the target address is a contract, it must implement {IERC721Receiver-onERC721Received}, which is called upon a safe transfer, and return the magic value `bytes4(keccak256(\"onERC721Received(address,address,uint256,bytes)\"))`; otherwise, the transfer is reverted. Requires the msg.sender to be the owner, approved, or operator",
        "params": {
          "from": "current owner of the token",
          "to": "address to receive the ownership of the given token ID",
          "tokenId": "uint256 ID of the token to be transferred"
        }
      },
      "safeTransferFrom(address,address,uint256,bytes)": {
        "details": "Safely transfers the ownership of a given token ID to another address If the target address is a contract, it must implement {IERC721Receiver-onERC721Received}, which is called upon a safe transfer, and return the magic value `bytes4(keccak256(\"onERC721Received(address,address,uint256,bytes)\"))`; otherwise, the transfer is reverted. Requires the _msgSender() to be the owner, approved, or operator",
        "params": {
          "_data": "bytes data to send along with a safe transfer check",
          "from": "current owner of the token",
          "to": "address to receive the ownership of the given token ID",
          "tokenId": "uint256 ID of the token to be transferred"
        }
      },
      "setApprovalForAll(address,bool)": {
        "details": "Sets or unsets the approval of a given operator An operator is allowed to transfer all tokens of the sender on their behalf.",
        "params": {
          "approved": "representing the status of the approval to be set",
          "to": "operator address to set the approval"
        }
      },
      "supportsInterface(bytes4)": {
        "details": "See {IERC165-supportsInterface}.     * Time complexity O(1), guaranteed to always use less than 30 000 gas."
      },
      "tokenURI(uint256)": {
        "details": "Returns the URI for a given token ID. May return an empty string.     * If the token's URI is non-empty and a base URI was set (via {_setBaseURI}), it will be added to the token ID's URI as a prefix.     * Reverts if the token ID does not exist."
      },
      "transferFrom(address,address,uint256)": {
        "details": "Transfers the ownership of a given token ID to another address. Usage of this method is discouraged, use {safeTransferFrom} whenever possible. Requires the msg.sender to be the owner, approved, or operator.",
        "params": {
          "from": "current owner of the token",
          "to": "address to receive the ownership of the given token ID",
          "tokenId": "uint256 ID of the token to be transferred"
        }
      },
      "transferOwnership(address)": {
        "details": "Allows the current owner to transfer control of the contract to a newOwner.",
        "params": {
          "newOwner": "The address to transfer ownership to."
        }
      }
    }
  },
  "userdoc": {
    "methods": {
      "mintUniqueTokenTo(address,uint256,string)": {
        "notice": "Custom accessor to create a unique token"
      },
      "renounceOwnership()": {
        "notice": "Renouncing to ownership will leave the contract without an owner. It will not be possible to call the functions with the `onlyOwner` modifier anymore."
      },
      "setBaseURI(string)": {
        "notice": "Set Base URI for retrieving token details URL"
      }
    }
  }
}