{
  "contractName": "TokenGenerator",
  "abi": [
    {
      "inputs": [
        {
          "internalType": "contract CelebrityOwnerToken",
          "name": "_ERC721TokenAddress",
          "type": "address"
        },
        {
          "internalType": "address",
          "name": "_CelebrityExchangeAddress",
          "type": "address"
        },
        {
          "internalType": "address",
          "name": "_reserve",
          "type": "address"
        },
        {
          "internalType": "address",
          "name": "_founder",
          "type": "address"
        },
        {
          "internalType": "uint8",
          "name": "_percentageAllocationToCreator",
          "type": "uint8"
        },
        {
          "internalType": "uint8",
          "name": "_percentageAllocationToReserve",
          "type": "uint8"
        },
        {
          "internalType": "uint8",
          "name": "_percentageAllocationToFounder",
          "type": "uint8"
        }
      ],
      "payable": false,
      "stateMutability": "nonpayable",
      "type": "constructor"
    },
    {
      "anonymous": false,
      "inputs": [
        {
          "indexed": true,
          "internalType": "address",
          "name": "previousOwner",
          "type": "address"
        },
        {
          "indexed": true,
          "internalType": "address",
          "name": "newOwner",
          "type": "address"
        }
      ],
      "name": "OwnershipTransferred",
      "type": "event"
    },
    {
      "anonymous": false,
      "inputs": [
        {
          "indexed": false,
          "internalType": "uint256",
          "name": "id",
          "type": "uint256"
        },
        {
          "indexed": false,
          "internalType": "address",
          "name": "ERC20Address",
          "type": "address"
        },
        {
          "indexed": false,
          "internalType": "address",
          "name": "creator",
          "type": "address"
        },
        {
          "indexed": false,
          "internalType": "string",
          "name": "tokenName",
          "type": "string"
        },
        {
          "indexed": false,
          "internalType": "string",
          "name": "symbol",
          "type": "string"
        },
        {
          "indexed": false,
          "internalType": "uint256",
          "name": "supply",
          "type": "uint256"
        }
      ],
      "name": "celebrityTokenGenerated",
      "type": "event"
    },
    {
      "anonymous": false,
      "inputs": [
        {
          "indexed": false,
          "internalType": "uint256",
          "name": "id",
          "type": "uint256"
        },
        {
          "indexed": false,
          "internalType": "uint256",
          "name": "celebrityID",
          "type": "uint256"
        },
        {
          "indexed": false,
          "internalType": "address",
          "name": "celebrityTokenAddress",
          "type": "address"
        }
      ],
      "name": "celebrityTokenRequestApproved",
      "type": "event"
    },
    {
      "anonymous": false,
      "inputs": [
        {
          "indexed": false,
          "internalType": "uint256",
          "name": "id",
          "type": "uint256"
        },
        {
          "indexed": false,
          "internalType": "address",
          "name": "creator",
          "type": "address"
        }
      ],
      "name": "celebrityTokenRequestGenerated",
      "type": "event"
    },
    {
      "anonymous": false,
      "inputs": [
        {
          "indexed": false,
          "internalType": "uint256",
          "name": "id",
          "type": "uint256"
        },
        {
          "indexed": false,
          "internalType": "string",
          "name": "reason",
          "type": "string"
        }
      ],
      "name": "celebrityTokenRequestRejected",
      "type": "event"
    },
    {
      "constant": true,
      "inputs": [
        {
          "internalType": "uint256",
          "name": "",
          "type": "uint256"
        }
      ],
      "name": "CelebrityExchangeAddressReserveAndFounder",
      "outputs": [
        {
          "internalType": "address",
          "name": "",
          "type": "address"
        }
      ],
      "payable": false,
      "stateMutability": "view",
      "type": "function"
    },
    {
      "constant": true,
      "inputs": [],
      "name": "CelebrityNFTToken",
      "outputs": [
        {
          "internalType": "contract CelebrityOwnerToken",
          "name": "",
          "type": "address"
        }
      ],
      "payable": false,
      "stateMutability": "view",
      "type": "function"
    },
    {
      "constant": true,
      "inputs": [
        {
          "internalType": "uint256",
          "name": "",
          "type": "uint256"
        }
      ],
      "name": "celebrities",
      "outputs": [
        {
          "internalType": "address",
          "name": "",
          "type": "address"
        }
      ],
      "payable": false,
      "stateMutability": "view",
      "type": "function"
    },
    {
      "constant": true,
      "inputs": [
        {
          "internalType": "uint256",
          "name": "",
          "type": "uint256"
        }
      ],
      "name": "celebrityCreationRequests",
      "outputs": [
        {
          "internalType": "uint256",
          "name": "celebrityId",
          "type": "uint256"
        },
        {
          "internalType": "address",
          "name": "tokenAddress",
          "type": "address"
        },
        {
          "internalType": "address",
          "name": "requester",
          "type": "address"
        },
        {
          "internalType": "string",
          "name": "vertical",
          "type": "string"
        },
        {
          "internalType": "string",
          "name": "category",
          "type": "string"
        },
        {
          "internalType": "string",
          "name": "celebrityName",
          "type": "string"
        },
        {
          "internalType": "string",
          "name": "country",
          "type": "string"
        },
        {
          "internalType": "string",
          "name": "DOB",
          "type": "string"
        },
        {
          "internalType": "string",
          "name": "symbol",
          "type": "string"
        }
      ],
      "payable": false,
      "stateMutability": "view",
      "type": "function"
    },
    {
      "constant": true,
      "inputs": [],
      "name": "counter",
      "outputs": [
        {
          "internalType": "uint256",
          "name": "",
          "type": "uint256"
        }
      ],
      "payable": false,
      "stateMutability": "view",
      "type": "function"
    },
    {
      "constant": true,
      "inputs": [],
      "name": "defaultSupply",
      "outputs": [
        {
          "internalType": "uint256",
          "name": "",
          "type": "uint256"
        }
      ],
      "payable": false,
      "stateMutability": "view",
      "type": "function"
    },
    {
      "constant": true,
      "inputs": [],
      "name": "isOwner",
      "outputs": [
        {
          "internalType": "bool",
          "name": "",
          "type": "bool"
        }
      ],
      "payable": false,
      "stateMutability": "view",
      "type": "function"
    },
    {
      "constant": true,
      "inputs": [],
      "name": "owner",
      "outputs": [
        {
          "internalType": "address",
          "name": "",
          "type": "address"
        }
      ],
      "payable": false,
      "stateMutability": "view",
      "type": "function"
    },
    {
      "constant": true,
      "inputs": [
        {
          "internalType": "uint256",
          "name": "",
          "type": "uint256"
        }
      ],
      "name": "percentageAllocationToCreatorReserveAndFounder",
      "outputs": [
        {
          "internalType": "uint8",
          "name": "",
          "type": "uint8"
        }
      ],
      "payable": false,
      "stateMutability": "view",
      "type": "function"
    },
    {
      "constant": false,
      "inputs": [],
      "name": "renounceOwnership",
      "outputs": [],
      "payable": false,
      "stateMutability": "nonpayable",
      "type": "function"
    },
    {
      "constant": false,
      "inputs": [
        {
          "internalType": "address",
          "name": "newOwner",
          "type": "address"
        }
      ],
      "name": "transferOwnership",
      "outputs": [],
      "payable": false,
      "stateMutability": "nonpayable",
      "type": "function"
    },
    {
      "constant": false,
      "inputs": [
        {
          "internalType": "contract CelebrityOwnerToken",
          "name": "_ERC721TokenAddress",
          "type": "address"
        },
        {
          "internalType": "address",
          "name": "_CelebrityExchangeAddress",
          "type": "address"
        },
        {
          "internalType": "address",
          "name": "_reserve",
          "type": "address"
        },
        {
          "internalType": "address",
          "name": "_founder",
          "type": "address"
        },
        {
          "internalType": "uint8",
          "name": "_percentageAllocationToCreator",
          "type": "uint8"
        },
        {
          "internalType": "uint8",
          "name": "_percentageAllocationToReserve",
          "type": "uint8"
        },
        {
          "internalType": "uint8",
          "name": "_percentageAllocationToFounder",
          "type": "uint8"
        }
      ],
      "name": "setDetails",
      "outputs": [],
      "payable": false,
      "stateMutability": "nonpayable",
      "type": "function"
    },
    {
      "constant": false,
      "inputs": [
        {
          "internalType": "string",
          "name": "_vertical",
          "type": "string"
        },
        {
          "internalType": "string",
          "name": "_category",
          "type": "string"
        },
        {
          "internalType": "string",
          "name": "_celebrityName",
          "type": "string"
        },
        {
          "internalType": "string",
          "name": "_country",
          "type": "string"
        },
        {
          "internalType": "string",
          "name": "_DOB",
          "type": "string"
        },
        {
          "internalType": "string",
          "name": "_symbol",
          "type": "string"
        }
      ],
      "name": "requestCelebrityCreation",
      "outputs": [],
      "payable": false,
      "stateMutability": "nonpayable",
      "type": "function"
    },
    {
      "constant": false,
      "inputs": [
        {
          "internalType": "uint256",
          "name": "_id",
          "type": "uint256"
        }
      ],
      "name": "approveRequest",
      "outputs": [],
      "payable": false,
      "stateMutability": "nonpayable",
      "type": "function"
    },
    {
      "constant": false,
      "inputs": [
        {
          "internalType": "uint256",
          "name": "_supplyInWholeNumber",
          "type": "uint256"
        }
      ],
      "name": "changeDefaultSupply",
      "outputs": [],
      "payable": false,
      "stateMutability": "nonpayable",
      "type": "function"
    },
    {
      "constant": false,
      "inputs": [
        {
          "internalType": "uint256",
          "name": "_id",
          "type": "uint256"
        },
        {
          "internalType": "string",
          "name": "_reason",
          "type": "string"
        }
      ],
      "name": "rejectRequest",
      "outputs": [],
      "payable": false,
      "stateMutability": "nonpayable",
      "type": "function"
    },
    {
      "constant": false,
      "inputs": [
        {
          "internalType": "uint256",
          "name": "_counter",
          "type": "uint256"
        }
      ],
      "name": "setCounter",
      "outputs": [],
      "payable": false,
      "stateMutability": "nonpayable",
      "type": "function"
    },
    {
      "constant": false,
      "inputs": [
        {
          "internalType": "address",
          "name": "newOwner",
          "type": "address"
        }
      ],
      "name": "transferCelebrityNFTTokenOwnership",
      "outputs": [],
      "payable": false,
      "stateMutability": "nonpayable",
      "type": "function"
    },
    {
      "constant": true,
      "inputs": [],
      "name": "getAllCelebrities",
      "outputs": [
        {
          "internalType": "address[]",
          "name": "",
          "type": "address[]"
        }
      ],
      "payable": false,
      "stateMutability": "view",
      "type": "function"
    }
  ],
  "bytecode": "0x608060405234801561001057600080fd5b50604051614435380380614435833981810160405260e081101561003357600080fd5b50805160208201516040808401516060850151608086015160a087015160c090970151600080546001600160a01b031916331780825595519798969794969395929491926001600160a01b0316917f8be0079c531659141344cd1fd0a4f28419497f9722a3daafe3b4186f6b6457e0908290a3600580546001600160a01b039889166001600160a01b031991821617909155600180805560048054918201815560009081527f8a35acfbc15ff81a39ae7d344fd709f28e8600b4aa8c65c6b64bfe7fe36bd19b90910180548316905569d3c21bcecceda1000000600255600680548316988a1698909817909755600780548216968916969096179095556008805490951693909616929092179092556009805460ff191660ff9384161761ff001916610100928416929092029190911762ff00001916620100009290941691909102929092179091556142a990819061018c90396000f3fe60806040523480156200001157600080fd5b50600436106200013c5760003560e01c80638da5cb5b11620000bd578063bfbdf1b2116200007b578063bfbdf1b214620003af578063c24b74c11462000701578063d7d1bbdb146200075d578063e0da4b6d146200077d578063f2fde38b1462000a5e576200013c565b80638da5cb5b14620003345780638f32d59b146200033e5780639d193cd4146200035c578063a32adf3b1462000366578063aadf30b11462000386576200013c565b8063522cfb9d116200010b578063522cfb9d14620002c457806361bc221a14620002e4578063715018a6146200030057806374e0b910146200030a5780638bb5d9c31462000314576200013c565b806302bd5f2914620001415780630a5505dd14620001a157806320b21fd4146200025257806340be0ff9146200028e575b600080fd5b6200019f600480360360e08110156200015957600080fd5b506001600160a01b0381358116916020810135821691604082013581169160608101359091169060ff608082013581169160a081013582169160c0909101351662000a87565b005b6200019f60048036036040811015620001b957600080fd5b81359190810190604081016020820135600160201b811115620001db57600080fd5b820183602082011115620001ee57600080fd5b803590602001918460018302840111600160201b831117156200021057600080fd5b91908080601f01602080910402602001604051908101604052809392919081815260200183838082843760009201919091525092955062000b5c945050505050565b62000272600480360360208110156200026a57600080fd5b503562000c4b565b604080516001600160a01b039092168252519081900360200190f35b620002ae60048036036020811015620002a657600080fd5b503562000c73565b6040805160ff9092168252519081900360200190f35b6200027260048036036020811015620002dc57600080fd5b503562000c9b565b620002ee62000cb9565b60408051918252519081900360200190f35b6200019f62000cbf565b6200027262000d50565b6200019f600480360360208110156200032c57600080fd5b503562000d5f565b6200027262000dab565b6200034862000dbb565b604080519115158252519081900360200190f35b620002ee62000dcc565b6200019f600480360360208110156200037e57600080fd5b503562000dd2565b6200019f600480360360208110156200039e57600080fd5b50356001600160a01b031662000e28565b6200019f600480360360c0811015620003c757600080fd5b810190602081018135600160201b811115620003e257600080fd5b820183602082011115620003f557600080fd5b803590602001918460018302840111600160201b831117156200041757600080fd5b91908080601f0160208091040260200160405190810160405280939291908181526020018383808284376000920191909152509295949360208101935035915050600160201b8111156200046a57600080fd5b8201836020820111156200047d57600080fd5b803590602001918460018302840111600160201b831117156200049f57600080fd5b91908080601f0160208091040260200160405190810160405280939291908181526020018383808284376000920191909152509295949360208101935035915050600160201b811115620004f257600080fd5b8201836020820111156200050557600080fd5b803590602001918460018302840111600160201b831117156200052757600080fd5b91908080601f0160208091040260200160405190810160405280939291908181526020018383808284376000920191909152509295949360208101935035915050600160201b8111156200057a57600080fd5b8201836020820111156200058d57600080fd5b803590602001918460018302840111600160201b83111715620005af57600080fd5b91908080601f0160208091040260200160405190810160405280939291908181526020018383808284376000920191909152509295949360208101935035915050600160201b8111156200060257600080fd5b8201836020820111156200061557600080fd5b803590602001918460018302840111600160201b831117156200063757600080fd5b91908080601f0160208091040260200160405190810160405280939291908181526020018383808284376000920191909152509295949360208101935035915050600160201b8111156200068a57600080fd5b8201836020820111156200069d57600080fd5b803590602001918460018302840111600160201b83111715620006bf57600080fd5b91908080601f01602080910402602001604051908101604052809392919081815260200183838082843760009201919091525092955062000eda945050505050565b6200070b6200126c565b60408051602080825283518183015283519192839290830191858101910280838360005b83811015620007495781810151838201526020016200072f565b505050509050019250505060405180910390f35b6200019f600480360360208110156200077557600080fd5b5035620012d0565b6200079d600480360360208110156200079557600080fd5b5035620013d1565b604051808a8152602001896001600160a01b03166001600160a01b03168152602001886001600160a01b03166001600160a01b0316815260200180602001806020018060200180602001806020018060200187810387528d818151815260200191508051906020019080838360005b83811015620008265781810151838201526020016200080c565b50505050905090810190601f168015620008545780820380516001836020036101000a031916815260200191505b5087810386528c5181528c516020918201918e019080838360005b83811015620008895781810151838201526020016200086f565b50505050905090810190601f168015620008b75780820380516001836020036101000a031916815260200191505b5087810385528b5181528b516020918201918d019080838360005b83811015620008ec578181015183820152602001620008d2565b50505050905090810190601f1680156200091a5780820380516001836020036101000a031916815260200191505b5087810384528a5181528a516020918201918c019080838360005b838110156200094f57818101518382015260200162000935565b50505050905090810190601f1680156200097d5780820380516001836020036101000a031916815260200191505b5087810383528951815289516020918201918b019080838360005b83811015620009b257818101518382015260200162000998565b50505050905090810190601f168015620009e05780820380516001836020036101000a031916815260200191505b5087810382528851815288516020918201918a019080838360005b8381101562000a15578181015183820152602001620009fb565b50505050905090810190601f16801562000a435780820380516001836020036101000a031916815260200191505b509f5050505050505050505050505050505060405180910390f35b6200019f6004803603602081101562000a7657600080fd5b50356001600160a01b031662001789565b62000a9162000dbb565b62000ace5760405162461bcd60e51b81526004018080602001828103825260298152602001806200421f6029913960400191505060405180910390fd5b600580546001600160a01b03199081166001600160a01b03998a161790915560068054821697891697909717909655600780548716958816959095179094556008805490951692909516919091179092556009805460ff928316620100000262ff00001960ff199092169484169490941761ff00191661010095909316949094029190911792909216179055565b62000b6662000dbb565b62000ba35760405162461bcd60e51b81526004018080602001828103825260298152602001806200421f6029913960400191505060405180910390fd5b7f4a20b9a1427aa8925fe73af10b16b0e37d62cf14f6790faf3307b6cb417d4dd082826040518083815260200180602001828103825283818151815260200191508051906020019080838360005b8381101562000c0b57818101518382015260200162000bf1565b50505050905090810190601f16801562000c395780820380516001836020036101000a031916815260200191505b50935050505060405180910390a15050565b6004818154811062000c5957fe5b6000918252602090912001546001600160a01b0316905081565b6009816003811062000c8157fe5b60209182820401919006915054906101000a900460ff1681565b6006816003811062000ca957fe5b01546001600160a01b0316905081565b60015481565b62000cc962000dbb565b62000d065760405162461bcd60e51b81526004018080602001828103825260298152602001806200421f6029913960400191505060405180910390fd5b600080546040516001600160a01b03909116907f8be0079c531659141344cd1fd0a4f28419497f9722a3daafe3b4186f6b6457e0908390a3600080546001600160a01b0319169055565b6005546001600160a01b031681565b62000d6962000dbb565b62000da65760405162461bcd60e51b81526004018080602001828103825260298152602001806200421f6029913960400191505060405180910390fd5b600155565b6000546001600160a01b03165b90565b6000546001600160a01b0316331490565b60025481565b62000ddc62000dbb565b62000e195760405162461bcd60e51b81526004018080602001828103825260298152602001806200421f6029913960400191505060405180910390fd5b670de0b6b3a764000002600255565b62000e3262000dbb565b62000e6f5760405162461bcd60e51b81526004018080602001828103825260298152602001806200421f6029913960400191505060405180910390fd5b6005546040805163f2fde38b60e01b81526001600160a01b0384811660048301529151919092169163f2fde38b91602480830192600092919082900301818387803b15801562000ebe57600080fd5b505af115801562000ed3573d6000803e3d6000fd5b5050505050565b60408051602080820190925260009052865190870120600080516020620041ff8339815191521480159062000f33575060408051602080820190925260009052855190860120600080516020620041ff83398151915214155b801562000f64575060408051602080820190925260009052845190850120600080516020620041ff83398151915214155b801562000f95575060408051602080820190925260009052835190840120600080516020620041ff83398151915214155b801562000fc6575060408051602080820190925260009052825190830120600080516020620041ff83398151915214155b801562000ff7575060408051602080820190925260009052815190820120600080516020620041ff83398151915214155b6200103c576040805162461bcd60e51b815260206004820152601060248201526f436865636b2074686520696e7075747360801b604482015290519081900360640190fd5b6200104662002781565b5060408051610120810182526000808252602080830182815233948401948552606084018b8152608085018b905260a085018a905260c0850189905260e085018890526101008501879052600a8054600181018083559190955285517fc65a7bb8d6351c1cf70c95a316cc6a92839c986682d98bc35f958f4883f9d2a8600990960295860190815592517fc65a7bb8d6351c1cf70c95a316cc6a92839c986682d98bc35f958f4883f9d2a9860180546001600160a01b03199081166001600160a01b039384161790915597517fc65a7bb8d6351c1cf70c95a316cc6a92839c986682d98bc35f958f4883f9d2aa87018054909916911617909655518051949594869492936200117a937fc65a7bb8d6351c1cf70c95a316cc6a92839c986682d98bc35f958f4883f9d2ab01920190620027df565b506080820151805162001198916004840191602090910190620027df565b5060a08201518051620011b6916005840191602090910190620027df565b5060c08201518051620011d4916006840191602090910190620027df565b5060e08201518051620011f2916007840191602090910190620027df565b50610100820151805162001211916008840191602090910190620027df565b5050600a547f8cb38bad23990c316519b1efeafa9f3d5c55f5295bd92f54129dff6e2c0a349892506200124d9150600163ffffffff620017de16565b604080519182523360208301528051918290030190a150505050505050565b60606004805480602002602001604051908101604052809291908181526020018280548015620012c657602002820191906000526020600020905b81546001600160a01b03168152600190910190602001808311620012a7575b5050505050905090565b620012da62000dbb565b620013175760405162461bcd60e51b81526004018080602001828103825260298152602001806200421f6029913960400191505060405180910390fd5b600080620013258362001829565b9150915080600a84815481106200133857fe5b90600052602060002090600902016000018190555081600a84815481106200135c57fe5b600091825260209182902060016009909202010180546001600160a01b039384166001600160a01b0319909116179055604080518681529182018490529184168183015290517f4e498c8d68fdd8b29f285b04fb000119e35ee5d750b914ac14ce84cd379193919181900360600190a1505050565b600a8181548110620013df57fe5b60009182526020918290206009919091020180546001808301546002808501546003860180546040805161010097831615979097026000190190911693909304601f81018990048902860189019093528285529497506001600160a01b039283169692169493918301828280156200149b5780601f106200146f576101008083540402835291602001916200149b565b820191906000526020600020905b8154815290600101906020018083116200147d57829003601f168201915b5050505060048301805460408051602060026001851615610100026000190190941693909304601f81018490048402820184019092528181529495949350908301828280156200152f5780601f1062001503576101008083540402835291602001916200152f565b820191906000526020600020905b8154815290600101906020018083116200151157829003601f168201915b5050505060058301805460408051602060026001851615610100026000190190941693909304601f8101849004840282018401909252818152949594935090830182828015620015c35780601f106200159757610100808354040283529160200191620015c3565b820191906000526020600020905b815481529060010190602001808311620015a557829003601f168201915b5050505060068301805460408051602060026001851615610100026000190190941693909304601f8101849004840282018401909252818152949594935090830182828015620016575780601f106200162b5761010080835404028352916020019162001657565b820191906000526020600020905b8154815290600101906020018083116200163957829003601f168201915b5050505060078301805460408051602060026001851615610100026000190190941693909304601f8101849004840282018401909252818152949594935090830182828015620016eb5780601f10620016bf57610100808354040283529160200191620016eb565b820191906000526020600020905b815481529060010190602001808311620016cd57829003601f168201915b5050505060088301805460408051602060026001851615610100026000190190941693909304601f81018490048402820184019092528181529495949350908301828280156200177f5780601f1062001753576101008083540402835291602001916200177f565b820191906000526020600020905b8154815290600101906020018083116200176157829003601f168201915b5050505050905089565b6200179362000dbb565b620017d05760405162461bcd60e51b81526004018080602001828103825260298152602001806200421f6029913960400191505060405180910390fd5b620017db81620024b5565b50565b60006200182283836040518060400160405280601e81526020017f536166654d6174683a207375627472616374696f6e206f766572666c6f77000081525062002557565b9392505050565b6000806200183662002781565b600a84815481106200184457fe5b60009182526020918290206040805161012081018252600993909302909101805483526001808201546001600160a01b03908116858701526002808401549091168585015260038301805485516101009482161594909402600019011691909104601f810187900487028301870190945283825293949193606086019391929091908301828280156200191b5780601f10620018ef576101008083540402835291602001916200191b565b820191906000526020600020905b815481529060010190602001808311620018fd57829003601f168201915b505050918352505060048201805460408051602060026001851615610100026000190190941693909304601f8101849004840282018401909252818152938201939291830182828015620019b35780601f106200198757610100808354040283529160200191620019b3565b820191906000526020600020905b8154815290600101906020018083116200199557829003601f168201915b505050918352505060058201805460408051602060026001851615610100026000190190941693909304601f810184900484028201840190925281815293820193929183018282801562001a4b5780601f1062001a1f5761010080835404028352916020019162001a4b565b820191906000526020600020905b81548152906001019060200180831162001a2d57829003601f168201915b505050918352505060068201805460408051602060026001851615610100026000190190941693909304601f810184900484028201840190925281815293820193929183018282801562001ae35780601f1062001ab75761010080835404028352916020019162001ae3565b820191906000526020600020905b81548152906001019060200180831162001ac557829003601f168201915b505050918352505060078201805460408051602060026001851615610100026000190190941693909304601f810184900484028201840190925281815293820193929183018282801562001b7b5780601f1062001b4f5761010080835404028352916020019162001b7b565b820191906000526020600020905b81548152906001019060200180831162001b5d57829003601f168201915b505050918352505060088201805460408051602060026001851615610100026000190190941693909304601f810184900484028201840190925281815293820193929183018282801562001c135780601f1062001be75761010080835404028352916020019162001c13565b820191906000526020600020905b81548152906001019060200180831162001bf557829003601f168201915b50505050508152505090506060816060015182608001518360a001518460c001518560e001516040516020018086805190602001908083835b6020831062001c6d5780518252601f19909201916020918201910162001c4c565b6001836020036101000a03801982511681845116808217855250505050505090500180602d60f81b81525060010185805190602001908083835b6020831062001cc85780518252601f19909201916020918201910162001ca7565b6001836020036101000a03801982511681845116808217855250505050505090500180602d60f81b81525060010184805190602001908083835b6020831062001d235780518252601f19909201916020918201910162001d02565b6001836020036101000a03801982511681845116808217855250505050505090500180602d60f81b81525060010183805190602001908083835b6020831062001d7e5780518252601f19909201916020918201910162001d5d565b6001836020036101000a03801982511681845116808217855250505050505090500180602d60f81b81525060010182805190602001908083835b6020831062001dd95780518252601f19909201916020918201910162001db8565b6001836020036101000a038019825116818451168082178552505050505050905001955050505050506040516020818303038152906040529050606082610100015160405160200180806246432d60e81b81525060030182805190602001908083835b6020831062001e5d5780518252601f19909201916020918201910162001e3c565b6001836020036101000a0380198251168184511680821785525050505050509050019150506040516020818303038152906040529050600060015484606001518560800151858560025462001eb162000dab565b8a604001516006600960405162001ec89062002864565b8a815260a081018690526001600160a01b0385811660c0830152841660e08201526020810160408201606083016080840161016085018761010087015b81546001600160a01b0316815260019091019060200180831162001f05575050606081019087906000905b825461010083900a900460ff1681526020600192830181810494850194909303909202910180841162001f30579050505085810385528e818151815260200191508051906020019080838360005b8381101562001f9857818101518382015260200162001f7e565b50505050905090810190601f16801562001fc65780820380516001836020036101000a031916815260200191505b5085810384528d5181528d516020918201918f019080838360005b8381101562001ffb57818101518382015260200162001fe1565b50505050905090810190601f168015620020295780820380516001836020036101000a031916815260200191505b5085810383528c5181528c516020918201918e019080838360005b838110156200205e57818101518382015260200162002044565b50505050905090810190601f1680156200208c5780820380516001836020036101000a031916815260200191505b5085810382528b5181528b516020918201918d019080838360005b83811015620020c1578181015183820152602001620020a7565b50505050905090810190601f168015620020ef5780820380516001836020036101000a031916815260200191505b509e505050505050505050505050505050604051809103906000f0801580156200211d573d6000803e3d6000fd5b5090506060836200212e83620025f2565b6040516020018083805190602001908083835b60208310620021625780518252601f19909201916020918201910162002141565b51815160209384036101000a60001901801990921691161790526205a60f60eb1b919093019081528451600390910192850191508083835b60208310620021bb5780518252601f1990920191602091820191016200219a565b51815160209384036101000a60001901801990921691161790526040805192909401828103601f19018352808552600554948d015160015463136ec30560e11b83526001600160a01b038083166004850190815260248501839052606060448601908152875160648701528751979d50919098169a506326dd860a9950919750958a955093909260849092019185019080838360005b838110156200226b57818101518382015260200162002251565b50505050905090810190601f168015620022995780820380516001836020036101000a031916815260200191505b50945050505050600060405180830381600087803b158015620022bb57600080fd5b505af1158015620022d0573d6000803e3d6000fd5b505060018054600090815260036020908152604080832080546001600160a01b03808b166001600160a01b031992831681179093556004805480890182559087527f8a35acfbc15ff81a39ae7d344fd709f28e8600b4aa8c65c6b64bfe7fe36bd19b018054909216831790915594548c8301516002548451838152808701949094529681169383019390935260a0820186905260c0606083018181528d51918401919091528c517f9fc3d786781575482e1c10b1149bd9deaf80eb554fc135cf51362fcc31ef8e3699509197508a9693958d958d959493608085019260e0860192890191908190849084905b83811015620023d6578181015183820152602001620023bc565b50505050905090810190601f168015620024045780820380516001836020036101000a031916815260200191505b50838103825285518152855160209182019187019080838360005b83811015620024395781810151838201526020016200241f565b50505050905090810190601f168015620024675780820380516001836020036101000a031916815260200191505b509850505050505050505060405180910390a1600180546200248f9163ffffffff620026f216565b60018181558391620024a79163ffffffff620017de16565b965096505050505050915091565b6001600160a01b038116620024fc5760405162461bcd60e51b815260040180806020018281038252602d81526020018062004248602d913960400191505060405180910390fd5b600080546040516001600160a01b03808516939216917f8be0079c531659141344cd1fd0a4f28419497f9722a3daafe3b4186f6b6457e091a3600080546001600160a01b0319166001600160a01b0392909216919091179055565b60008184841115620025ea5760405162461bcd60e51b81526004018080602001828103825283818151815260200191508051906020019080838360005b83811015620025ae57818101518382015260200162002594565b50505050905090810190601f168015620025dc5780820380516001836020036101000a031916815260200191505b509250505060405180910390fd5b505050900390565b604080516028808252606082810190935282919060208201818038833901905050905060005b6014811015620026e95760008160130360080260020a856001600160a01b0316816200264057fe5b0460f81b9050600060108260f81c60ff16816200265957fe5b0460f81b905060008160f81c6010028360f81c0360f81b90506200267d826200274d565b8585600202815181106200268d57fe5b60200101906001600160f81b031916908160001a905350620026af816200274d565b858560020260010181518110620026c257fe5b60200101906001600160f81b031916908160001a9053505060019092019150620026189050565b5090505b919050565b60008282018381101562001822576040805162461bcd60e51b815260206004820152601b60248201527f536166654d6174683a206164646974696f6e206f766572666c6f770000000000604482015290519081900360640190fd5b6000600a60f883901c10156200276f578160f81c60300160f81b9050620026ed565b8160f81c60570160f81b9050620026ed565b6040518061012001604052806000815260200160006001600160a01b0316815260200160006001600160a01b031681526020016060815260200160608152602001606081526020016060815260200160608152602001606081525090565b828054600181600116156101000203166002900490600052602060002090601f016020900481019282601f106200282257805160ff191683800117855562002852565b8280016001018555821562002852579182015b828111156200285257825182559160200191906001019062002835565b506200286092915062002872565b5090565b61196f806200289083390190565b62000db891905b808211156200286057600081556001016200287956fe60806040523480156200001157600080fd5b506040516200196f3803806200196f83398181016040526101c08110156200003857600080fd5b8151602083018051604051929492938301929190846401000000008211156200006057600080fd5b9083019060208201858111156200007657600080fd5b82516401000000008111828201881017156200009157600080fd5b82525081516020918201929091019080838360005b83811015620000c0578181015183820152602001620000a6565b50505050905090810190601f168015620000ee5780820380516001836020036101000a031916815260200191505b50604052602001805160405193929190846401000000008211156200011257600080fd5b9083019060208201858111156200012857600080fd5b82516401000000008111828201881017156200014357600080fd5b82525081516020918201929091019080838360005b838110156200017257818101518382015260200162000158565b50505050905090810190601f168015620001a05780820380516001836020036101000a031916815260200191505b5060405260200180516040519392919084640100000000821115620001c457600080fd5b908301906020820185811115620001da57600080fd5b8251640100000000811182820188101715620001f557600080fd5b82525081516020918201929091019080838360005b83811015620002245781810151838201526020016200020a565b50505050905090810190601f168015620002525780820380516001836020036101000a031916815260200191505b50604052602001805160405193929190846401000000008211156200027657600080fd5b9083019060208201858111156200028c57600080fd5b8251640100000000811182820188101715620002a757600080fd5b82525081516020918201929091019080838360005b83811015620002d6578181015183820152602001620002bc565b50505050905090810190601f168015620003045780820380516001836020036101000a031916815260200191505b506040908152602082810151918301516060840151885193965090945092608081019260e0909101916200033e916000918a0190620007c5565b50855162000354906001906020890190620007c5565b506012600255600385905560098a9055600580546001600160a01b038681166001600160a01b03199283161790925560068054868416908316179055604084015160088054831691841691909117905560208401516007805490921692169190911790558051606460ff90911611801590620003db57506064816001602002015160ff1611155b8015620003f357506064816002602002015160ff1611155b620004305760405162461bcd60e51b8152600401808060200182810382526038815260200180620019376038913960400191505060405180910390fd5b805160088054602080850151604086015160ff918216600160a81b908102968316600160a01b0260ff60a01b199095169490941760ff60a81b19169590951760ff60b01b1916600160b01b958216959095029490941792839055600354620004c494606494620004b094929392900416906200066d811b62000e4917901c565b620006d460201b62000ea21790919060201c565b6007546001600160a01b03166000908152600d602090815260409091208054929092019091556008546003546200051992606492620004b09291600160a01b90910460ff16906200066d811b62000e4917901c565b6006546001600160a01b03166000908152600d602090815260409091208054929092019091556008546003546200056e92606492620004b09291600160b01b90910460ff16906200066d811b62000e4917901c565b600880546001600160a01b03166000908152600d60209081526040909120805490930190925554600354620005d492606492620004b0929160ff600160a01b83048116600160a81b90930481168603929092039091169062000e496200066d821b17901c565b600580546001600160a01b039081166000908152600d60209081526040808320805490960190955592549091168152919091205460045589516200061f91600a91908c0190620007c5565b5087516200063590600b9060208b0190620007c5565b505051600c80546001600160a01b0390921661010002610100600160a81b0319909216919091179055506200086a9650505050505050565b6000826200067e57506000620006ce565b828202828482816200068c57fe5b0414620006cb5760405162461bcd60e51b8152600401808060200182810382526021815260200180620019166021913960400191505060405180910390fd5b90505b92915050565b6000620006cb83836040518060400160405280601a81526020017f536166654d6174683a206469766973696f6e206279207a65726f0000000000008152506200071e60201b60201c565b60008183620007ae5760405162461bcd60e51b81526004018080602001828103825283818151815260200191508051906020019080838360005b838110156200077257818101518382015260200162000758565b50505050905090810190601f168015620007a05780820380516001836020036101000a031916815260200191505b509250505060405180910390fd5b506000838581620007bb57fe5b0495945050505050565b828054600181600116156101000203166002900490600052602060002090601f016020900481019282601f106200080857805160ff191683800117855562000838565b8280016001018555821562000838579182015b82811115620008385782518255916020019190600101906200081b565b50620008469291506200084a565b5090565b6200086791905b8082111562000846576000815560010162000851565b90565b61109c806200087a6000396000f3fe608060405234801561001057600080fd5b50600436106101585760003560e01c806395d89b41116100c3578063b4dc17d51161007c578063b4dc17d5146103a0578063cd3293de146103bd578063dd62ed3e146103c5578063ef2cd7c6146103f3578063ef430aa6146103fb578063fee828181461040357610158565b806395d89b4114610308578063989430d414610310578063a457c2d714610338578063a9059cbb14610364578063ac86bce114610390578063af640d0f1461039857610158565b8063313ce56711610115578063313ce56714610296578063395093511461029e5780634d853ee5146102ca5780635dcf8d2b146102d257806370a08231146102da5780638da5cb5b1461030057610158565b806302d05d3f1461015d57806306fdde0314610181578063095ea7b3146101fe57806318160ddd1461023e57806318315de21461025857806323b872dd14610260575b600080fd5b61016561040b565b604080516001600160a01b039092168252519081900360200190f35b61018961041a565b6040805160208082528351818301528351919283929083019185019080838360005b838110156101c35781810151838201526020016101ab565b50505050905090810190601f1680156101f05780820380516001836020036101000a031916815260200191505b509250505060405180910390f35b61022a6004803603604081101561021457600080fd5b506001600160a01b0381351690602001356104a8565b604080519115158252519081900360200190f35b6102466105a6565b60408051918252519081900360200190f35b6101896105ac565b61022a6004803603606081101561027657600080fd5b506001600160a01b03813581169160208101359091169060400135610607565b610246610730565b61022a600480360360408110156102b457600080fd5b506001600160a01b038135169060200135610736565b610165610816565b610246610825565b610246600480360360208110156102f057600080fd5b50356001600160a01b031661082b565b610165610846565b610189610855565b6103366004803603602081101561032657600080fd5b50356001600160a01b03166108af565b005b61022a6004803603604081101561034e57600080fd5b506001600160a01b038135169060200135610920565b61022a6004803603604081101561037a57600080fd5b506001600160a01b03813516906020013561099b565b61022a6109f7565b610246610a00565b610336600480360360208110156103b657600080fd5b5035610a06565b610165610aa2565b610246600480360360408110156103db57600080fd5b506001600160a01b0381358116916020013516610ab1565b610336610adc565b610189610b4e565b610165610ba9565b6006546001600160a01b031681565b6000805460408051602060026001851615610100026000190190941693909304601f810184900484028201840190925281815292918301828280156104a05780601f10610475576101008083540402835291602001916104a0565b820191906000526020600020905b81548152906001019060200180831161048357829003601f168201915b505050505081565b60006001600160a01b0383166104ef5760405162461bcd60e51b8152600401808060200182810382526036815260200180610f6e6036913960400191505060405180910390fd5b81158061050357506105013384610ab1565b155b61053e5760405162461bcd60e51b81526004018080602001828103825260468152602001806110226046913960600191505060405180910390fd5b336000818152600e602090815260408083206001600160a01b03881680855290835292819020869055805186815290519293927f8c5be1e5ebec7d5bd14f71427d1e84f3dd0314c0f7b2291e5b200ac8c7c3b925929181900390910190a35060015b92915050565b60035490565b600a805460408051602060026001851615610100026000190190941693909304601f810184900484028201840190925281815292918301828280156104a05780601f10610475576101008083540402835291602001916104a0565b600c5460009061010090046001600160a01b031633146106d8578161062c8533610ab1565b101561067f576040805162461bcd60e51b815260206004820152601f60248201527f496e73756666696369656e7420416c6c6f77616e636520696e20746f6b656e00604482015290519081900360640190fd5b6001600160a01b0384166000908152600e602090815260408083203384529091529020546106b3908363ffffffff610bbd16565b6001600160a01b0385166000908152600e602090815260408083203384529091529020555b6106e3848484610c06565b610726576040805162461bcd60e51b815260206004820152600f60248201526e151c985b9cd9995c8811985a5b1959608a1b604482015290519081900360640190fd5b5060019392505050565b60025481565b60006001600160a01b03831661077d5760405162461bcd60e51b8152600401808060200182810382526036815260200180610f6e6036913960400191505060405180910390fd5b336000908152600e602090815260408083206001600160a01b03871684529091529020546107b1908363ffffffff610d5816565b336000818152600e602090815260408083206001600160a01b0389168085529083529281902085905580519485525191937f8c5be1e5ebec7d5bd14f71427d1e84f3dd0314c0f7b2291e5b200ac8c7c3b925929081900390910190a350600192915050565b6008546001600160a01b031681565b60045490565b6001600160a01b03166000908152600d602052604090205490565b6005546001600160a01b031681565b60018054604080516020600284861615610100026000190190941693909304601f810184900484028201840190925281815292918301828280156104a05780601f10610475576101008083540402835291602001916104a0565b6005546001600160a01b031633146108f85760405162461bcd60e51b8152600401808060200182810382526029815260200180610f456029913960400191505060405180910390fd5b600c80546001600160a01b0390921661010002610100600160a81b0319909216919091179055565b60006001600160a01b0383166109675760405162461bcd60e51b8152600401808060200182810382526036815260200180610f6e6036913960400191505060405180910390fd5b336000908152600e602090815260408083206001600160a01b03871684529091529020546107b1908363ffffffff610bbd16565b60006109a8338484610c06565b6109ee576040805162461bcd60e51b8152602060048201526012602482015271151c985b9cd858dd1a5bdb8811985a5b195960721b604482015290519081900360640190fd5b50600192915050565b600c5460ff1690565b60095481565b6005546001600160a01b03163314610a4f5760405162461bcd60e51b8152600401808060200182810382526029815260200180610f456029913960400191505060405180910390fd5b336000908152600d6020526040902054811115610a9d5760405162461bcd60e51b8152600401808060200182810382526023815260200180610fa46023913960400191505060405180910390fd5b600455565b6007546001600160a01b031681565b6001600160a01b039182166000908152600e6020908152604080832093909416825291909152205490565b6005546001600160a01b0316331480610aff57506005546001600160a01b031632145b610b3a5760405162461bcd60e51b815260040180806020018281038252603a815260200180610fe8603a913960400191505060405180910390fd5b600c805460ff19811660ff90911615179055565b600b805460408051602060026001851615610100026000190190941693909304601f810184900484028201840190925281815292918301828280156104a05780601f10610475576101008083540402835291602001916104a0565b600c5461010090046001600160a01b031681565b6000610bff83836040518060400160405280601e81526020017f536166654d6174683a207375627472616374696f6e206f766572666c6f770000815250610db2565b9392505050565b60006001600160a01b038316610c63576040805162461bcd60e51b815260206004820152601f60248201527f43616e6e6f74207472616e7366657220746f2030783030206164647265737300604482015290519081900360640190fd5b6001600160a01b0384166000908152600d6020526040902054610c8c908363ffffffff610bbd16565b6001600160a01b038086166000908152600d60205260408082209390935590851681522054610cc1908363ffffffff610d5816565b6001600160a01b038085166000908152600d602052604090209190915560055485821691161415610d0357600454610cff908363ffffffff610bbd16565b6004555b826001600160a01b0316846001600160a01b03167fddf252ad1be2c89b69c2b068fc378daa952ba7f163c4a11628f55a4df523b3ef846040518082815260200191505060405180910390a35060019392505050565b600082820183811015610bff576040805162461bcd60e51b815260206004820152601b60248201527f536166654d6174683a206164646974696f6e206f766572666c6f770000000000604482015290519081900360640190fd5b60008184841115610e415760405162461bcd60e51b81526004018080602001828103825283818151815260200191508051906020019080838360005b83811015610e06578181015183820152602001610dee565b50505050905090810190601f168015610e335780820380516001836020036101000a031916815260200191505b509250505060405180910390fd5b505050900390565b600082610e58575060006105a0565b82820282848281610e6557fe5b0414610bff5760405162461bcd60e51b8152600401808060200182810382526021815260200180610fc76021913960400191505060405180910390fd5b6000610bff83836040518060400160405280601a81526020017f536166654d6174683a206469766973696f6e206279207a65726f00000000000081525060008183610f2e5760405162461bcd60e51b8152602060048201818152835160248401528351909283926044909101919085019080838360008315610e06578181015183820152602001610dee565b506000838581610f3a57fe5b049594505050505056fe4f4e4c5920434f4e5452414354204f574e45522043414e20504552464f524d204f5045524154494f4e5370656e64696e672064656c65676174696f6e2063616e6e6f742062652061737369676e656420746f203078303020616464726573734e6f7420656e6f75676820746f6b656e732c20636f6e7369646572206d696e74696e67536166654d6174683a206d756c7469706c69636174696f6e206f766572666c6f774f6e6c7920746865206f776e6572206f72206f776e6572207669612065786368616e67652063616e206368616e6765207468652073746174757343616c6c20696e637265617365416c6c6f77616e63652829206f72206465637265617365416c6c6f77616e636528292066756e6374696f6e7320726573706563746976656c79a265627a7a723158204d34d53df97bb5ee80866f52cc9ec6703eb5893fda573e61e9b6d5dfb2cb0e0964736f6c63430005100032536166654d6174683a206d756c7469706c69636174696f6e206f766572666c6f775265736572766520616e642043726561746f7220616c6c6f636174696f6e732063616e6e6f74206265206d6f7265207468616e2031303025c5d2460186f7233c927e7db2dcc703c0e500b653ca82273b7bfad8045d85a4704f4e4c5920434f4e5452414354204f574e45522043414e20504552464f524d204f5045524154494f4e41444d494e20524f4c452043414e4e4f542042452041535349474e454420544f20307830302041444452455353a265627a7a72315820202355cc3bd2f5401224d0824dcc1e443a0095dcaea236da0e4a5947c3bf66aa64736f6c63430005100032",
  "source": "pragma solidity =0.5.16;\n//SPDX-License-Identifier: MIT\nimport \"../_supportingContracts/Ownable.sol\";\nimport \"./CelebrityERC20Token.sol\";\nimport \"./CelebrityERC721Token.sol\";\nimport \"../_supportingContracts/SafeMath.sol\";\n\ncontract TokenGenerator is Ownable {\n    using SafeMath for uint256;\n    uint256 public counter;\n    uint256 public defaultSupply;\n    mapping(uint256 => address) private celebrity;\n    address[] public celebrities;\n    CelebrityOwnerToken public CelebrityNFTToken;\n    address[3] public CelebrityExchangeAddressReserveAndFounder;\n    uint8[3] public percentageAllocationToCreatorReserveAndFounder;\n\n    constructor(\n        CelebrityOwnerToken _ERC721TokenAddress,\n        address _CelebrityExchangeAddress,\n        address _reserve,\n        address _founder,\n        uint8 _percentageAllocationToCreator,\n        uint8 _percentageAllocationToReserve,\n        uint8 _percentageAllocationToFounder\n    ) public {\n        CelebrityNFTToken = _ERC721TokenAddress;\n        counter = 1;\n        celebrities.push(address(0)); // To make sure celebrities array gets filled from 1 and not 0\n        defaultSupply = 1000000 * (10**18);\n        CelebrityExchangeAddressReserveAndFounder[\n            0\n        ] = _CelebrityExchangeAddress;\n        CelebrityExchangeAddressReserveAndFounder[1] = _reserve;\n        CelebrityExchangeAddressReserveAndFounder[2] = _founder;\n        percentageAllocationToCreatorReserveAndFounder[\n            0\n        ] = _percentageAllocationToCreator;\n        percentageAllocationToCreatorReserveAndFounder[\n            1\n        ] = _percentageAllocationToReserve;\n        percentageAllocationToCreatorReserveAndFounder[\n            2\n        ] = _percentageAllocationToFounder;\n    }\n\n    function setDetails(\n        CelebrityOwnerToken _ERC721TokenAddress,\n        address _CelebrityExchangeAddress,\n        address _reserve,\n        address _founder,\n        uint8 _percentageAllocationToCreator,\n        uint8 _percentageAllocationToReserve,\n        uint8 _percentageAllocationToFounder\n    ) public onlyOwner {\n        CelebrityNFTToken = _ERC721TokenAddress;\n        CelebrityExchangeAddressReserveAndFounder[\n            0\n        ] = _CelebrityExchangeAddress;\n        CelebrityExchangeAddressReserveAndFounder[1] = _reserve;\n        CelebrityExchangeAddressReserveAndFounder[2] = _founder;\n        percentageAllocationToCreatorReserveAndFounder[\n            0\n        ] = _percentageAllocationToCreator;\n        percentageAllocationToCreatorReserveAndFounder[\n            1\n        ] = _percentageAllocationToReserve;\n        percentageAllocationToCreatorReserveAndFounder[\n            2\n        ] = _percentageAllocationToFounder;\n    }\n\n    struct CelebrityDetails {\n        uint256 celebrityId;\n        address tokenAddress;\n        address requester;\n        string vertical;\n        string category;\n        string celebrityName;\n        string country;\n        string DOB;\n        string symbol;\n    }\n    CelebrityDetails[] public celebrityCreationRequests;\n\n    event celebrityTokenRequestGenerated(uint256 id, address creator);\n\n    function requestCelebrityCreation(\n        string memory _vertical,\n        string memory _category,\n        string memory _celebrityName,\n        string memory _country,\n        string memory _DOB,\n        string memory _symbol\n    ) public {\n        require(\n            keccak256(bytes(_vertical)) != keccak256(bytes(\"\")) &&\n                keccak256(bytes(_category)) != keccak256(bytes(\"\")) &&\n                keccak256(bytes(_celebrityName)) != keccak256(bytes(\"\")) &&\n                keccak256(bytes(_country)) != keccak256(bytes(\"\")) &&\n                keccak256(bytes(_DOB)) != keccak256(bytes(\"\")) &&\n                keccak256(bytes(_symbol)) != keccak256(bytes(\"\")),\n            \"Check the inputs\"\n        );\n        CelebrityDetails memory tempCelebrity =\n            CelebrityDetails(\n                0, // Will generate actual id if approved\n                address(0), // Will generate actual address if approved\n                msg.sender,\n                _vertical,\n                _category,\n                _celebrityName,\n                _country,\n                _DOB,\n                _symbol\n            );\n        celebrityCreationRequests.push(tempCelebrity);\n        emit celebrityTokenRequestGenerated(\n            celebrityCreationRequests.length.sub(1),\n            msg.sender\n        );\n    }\n\n    event celebrityTokenRequestApproved(\n        uint256 id,\n        uint256 celebrityID,\n        address celebrityTokenAddress\n    );\n    event celebrityTokenRequestRejected(uint256 id, string reason);\n\n    function approveRequest(uint256 _id) public onlyOwner {\n        (address tokenAddress, uint256 _celebrityId) = generateToken(_id);\n        celebrityCreationRequests[_id].celebrityId = _celebrityId;\n        celebrityCreationRequests[_id].tokenAddress = tokenAddress;\n        emit celebrityTokenRequestApproved(_id, _celebrityId, tokenAddress);\n    }\n\n    function changeDefaultSupply(uint256 _supplyInWholeNumber)\n        public\n        onlyOwner\n    {\n        defaultSupply = _supplyInWholeNumber * (10**18);\n    }\n\n    function rejectRequest(uint256 _id, string memory _reason)\n        public\n        onlyOwner\n    {\n        emit celebrityTokenRequestRejected(_id, _reason);\n    }\n\n    // provision for others to create tokens\n    event celebrityTokenGenerated(\n        uint256 id,\n        address ERC20Address,\n        address creator,\n        string tokenName,\n        string symbol,\n        uint256 supply\n    );\n\n    function generateToken(uint256 _id) private returns (address, uint256) {\n        CelebrityDetails memory tempCelebrity = celebrityCreationRequests[_id];\n        string memory tokenName =\n            string(\n                abi.encodePacked(\n                    tempCelebrity.vertical,\n                    \"-\",\n                    tempCelebrity.category,\n                    \"-\",\n                    tempCelebrity.celebrityName,\n                    \"-\",\n                    tempCelebrity.country,\n                    \"-\",\n                    tempCelebrity.DOB\n                )\n            );\n        string memory FCSymbol =\n            string(abi.encodePacked(\"FC-\", tempCelebrity.symbol));\n        address newCelebrity =\n            address(\n                new CelebrityToken(\n                    counter,\n                    tempCelebrity.vertical,\n                    tempCelebrity.category,\n                    tokenName,\n                    FCSymbol,\n                    defaultSupply,\n                    owner(),\n                    tempCelebrity.requester,\n                    CelebrityExchangeAddressReserveAndFounder,\n                    percentageAllocationToCreatorReserveAndFounder\n                )\n            );\n        string memory tokenURI =\n            string(\n                abi.encodePacked(tokenName, \"-0x\", toAsciiString(newCelebrity))\n            ); // 0x at the beginning gets truncated during conversion, so adding manually\n        CelebrityNFTToken.mintUniqueTokenTo(\n            tempCelebrity.requester,\n            counter,\n            tokenURI\n        );\n        celebrity[counter] = newCelebrity;\n        celebrities.push(newCelebrity);\n        emit celebrityTokenGenerated(\n            counter,\n            newCelebrity,\n            tempCelebrity.requester,\n            tokenName,\n            FCSymbol,\n            defaultSupply\n        );\n        counter = counter.add(1);\n        return (newCelebrity, counter.sub(1));\n    }\n\n    function setCounter(uint256 _counter) public onlyOwner {\n        counter = _counter;\n    }\n\n    function transferCelebrityNFTTokenOwnership(address newOwner)\n        public\n        onlyOwner\n    {\n        CelebrityNFTToken.transferOwnership(newOwner);\n    }\n\n    function getAllCelebrities() public view returns (address[] memory) {\n        return celebrities;\n    }\n\n    // Below functions are to convert address to string => https://ethereum.stackexchange.com/questions/8346/convert-address-to-string\n    function toAsciiString(address x) private pure returns (string memory) {\n        bytes memory s = new bytes(40);\n        for (uint256 i = 0; i < 20; i++) {\n            bytes1 b = bytes1(uint8(uint256(x) / (2**(8 * (19 - i)))));\n            bytes1 hi = bytes1(uint8(b) / 16);\n            bytes1 lo = bytes1(uint8(b) - 16 * uint8(hi));\n            s[2 * i] = char(hi);\n            s[2 * i + 1] = char(lo);\n        }\n        return string(s);\n    }\n\n    function char(bytes1 b) private pure returns (bytes1 c) {\n        if (uint8(b) < 10) return bytes1(uint8(b) + 0x30);\n        else return bytes1(uint8(b) + 0x57);\n    }\n}\n",
  "sourcePath": "/Users/raghu/Fanance/fanance-dapp/contracts/celebrity-contracts/TokenGenerator.sol",
  "compiler": {
    "name": "solc",
    "version": "0.5.16+commit.9c3226ce.Emscripten.clang"
  },
  "schemaVersion": "3.2.3",
  "updatedAt": "2021-01-16T14:48:09.405Z",
  "networkType": "ethereum",
  "devdoc": {
    "methods": {
      "isOwner()": {
        "return": "true if `msg.sender` is the owner of the contract."
      },
      "owner()": {
        "return": "the address of the owner."
      },
      "renounceOwnership()": {
        "details": "Allows the current owner to relinquish control of the contract."
      },
      "transferOwnership(address)": {
        "details": "Allows the current owner to transfer control of the contract to a newOwner.",
        "params": {
          "newOwner": "The address to transfer ownership to."
        }
      }
    }
  },
  "userdoc": {
    "methods": {
      "renounceOwnership()": {
        "notice": "Renouncing to ownership will leave the contract without an owner. It will not be possible to call the functions with the `onlyOwner` modifier anymore."
      }
    }
  }
}