{
  "contractName": "WETHToken",
  "abi": [
    {
      "inputs": [
        {
          "internalType": "string",
          "name": "_name",
          "type": "string"
        },
        {
          "internalType": "string",
          "name": "_symbol",
          "type": "string"
        },
        {
          "internalType": "uint8",
          "name": "_decimals",
          "type": "uint8"
        },
        {
          "internalType": "uint256",
          "name": "_supply",
          "type": "uint256"
        }
      ],
      "payable": false,
      "stateMutability": "nonpayable",
      "type": "constructor"
    },
    {
      "anonymous": false,
      "inputs": [
        {
          "indexed": false,
          "internalType": "address",
          "name": "sender",
          "type": "address"
        },
        {
          "indexed": false,
          "internalType": "address",
          "name": "delegate",
          "type": "address"
        },
        {
          "indexed": false,
          "internalType": "uint256",
          "name": "tokens",
          "type": "uint256"
        }
      ],
      "name": "Approval",
      "type": "event"
    },
    {
      "anonymous": false,
      "inputs": [
        {
          "indexed": false,
          "internalType": "address",
          "name": "sender",
          "type": "address"
        },
        {
          "indexed": false,
          "internalType": "address",
          "name": "receiver",
          "type": "address"
        },
        {
          "indexed": false,
          "internalType": "uint256",
          "name": "tokens",
          "type": "uint256"
        }
      ],
      "name": "Transfer",
      "type": "event"
    },
    {
      "constant": true,
      "inputs": [
        {
          "internalType": "address",
          "name": "",
          "type": "address"
        },
        {
          "internalType": "address",
          "name": "",
          "type": "address"
        }
      ],
      "name": "allowed",
      "outputs": [
        {
          "internalType": "uint256",
          "name": "",
          "type": "uint256"
        }
      ],
      "payable": false,
      "stateMutability": "view",
      "type": "function"
    },
    {
      "constant": true,
      "inputs": [
        {
          "internalType": "address",
          "name": "",
          "type": "address"
        }
      ],
      "name": "balances",
      "outputs": [
        {
          "internalType": "uint256",
          "name": "",
          "type": "uint256"
        }
      ],
      "payable": false,
      "stateMutability": "view",
      "type": "function"
    },
    {
      "constant": true,
      "inputs": [],
      "name": "decimals",
      "outputs": [
        {
          "internalType": "uint8",
          "name": "",
          "type": "uint8"
        }
      ],
      "payable": false,
      "stateMutability": "view",
      "type": "function"
    },
    {
      "constant": true,
      "inputs": [],
      "name": "name",
      "outputs": [
        {
          "internalType": "string",
          "name": "",
          "type": "string"
        }
      ],
      "payable": false,
      "stateMutability": "view",
      "type": "function"
    },
    {
      "constant": true,
      "inputs": [],
      "name": "supply",
      "outputs": [
        {
          "internalType": "uint256",
          "name": "",
          "type": "uint256"
        }
      ],
      "payable": false,
      "stateMutability": "view",
      "type": "function"
    },
    {
      "constant": true,
      "inputs": [],
      "name": "symbol",
      "outputs": [
        {
          "internalType": "string",
          "name": "",
          "type": "string"
        }
      ],
      "payable": false,
      "stateMutability": "view",
      "type": "function"
    },
    {
      "constant": true,
      "inputs": [],
      "name": "totalSupply",
      "outputs": [
        {
          "internalType": "uint256",
          "name": "",
          "type": "uint256"
        }
      ],
      "payable": false,
      "stateMutability": "view",
      "type": "function"
    },
    {
      "constant": true,
      "inputs": [
        {
          "internalType": "address",
          "name": "tokenOwner",
          "type": "address"
        }
      ],
      "name": "balanceOf",
      "outputs": [
        {
          "internalType": "uint256",
          "name": "",
          "type": "uint256"
        }
      ],
      "payable": false,
      "stateMutability": "view",
      "type": "function"
    },
    {
      "constant": false,
      "inputs": [
        {
          "internalType": "address",
          "name": "receiver",
          "type": "address"
        },
        {
          "internalType": "uint256",
          "name": "numTokens",
          "type": "uint256"
        }
      ],
      "name": "transfer",
      "outputs": [
        {
          "internalType": "bool",
          "name": "",
          "type": "bool"
        }
      ],
      "payable": false,
      "stateMutability": "nonpayable",
      "type": "function"
    },
    {
      "constant": false,
      "inputs": [
        {
          "internalType": "address",
          "name": "delegate",
          "type": "address"
        },
        {
          "internalType": "uint256",
          "name": "numTokens",
          "type": "uint256"
        }
      ],
      "name": "approve",
      "outputs": [
        {
          "internalType": "bool",
          "name": "",
          "type": "bool"
        }
      ],
      "payable": false,
      "stateMutability": "nonpayable",
      "type": "function"
    },
    {
      "constant": true,
      "inputs": [
        {
          "internalType": "address",
          "name": "owner",
          "type": "address"
        },
        {
          "internalType": "address",
          "name": "delegate",
          "type": "address"
        }
      ],
      "name": "allowance",
      "outputs": [
        {
          "internalType": "uint256",
          "name": "",
          "type": "uint256"
        }
      ],
      "payable": false,
      "stateMutability": "view",
      "type": "function"
    },
    {
      "constant": false,
      "inputs": [
        {
          "internalType": "address",
          "name": "owner",
          "type": "address"
        },
        {
          "internalType": "address",
          "name": "buyer",
          "type": "address"
        },
        {
          "internalType": "uint256",
          "name": "numTokens",
          "type": "uint256"
        }
      ],
      "name": "transferFrom",
      "outputs": [
        {
          "internalType": "bool",
          "name": "",
          "type": "bool"
        }
      ],
      "payable": false,
      "stateMutability": "nonpayable",
      "type": "function"
    }
  ],
  "bytecode": "0x608060405234801561001057600080fd5b50604051610b6d380380610b6d8339818101604052608081101561003357600080fd5b810190808051604051939291908464010000000082111561005357600080fd5b90830190602082018581111561006857600080fd5b825164010000000081118282018810171561008257600080fd5b82525081516020918201929091019080838360005b838110156100af578181015183820152602001610097565b50505050905090810190601f1680156100dc5780820380516001836020036101000a031916815260200191505b50604052602001805160405193929190846401000000008211156100ff57600080fd5b90830190602082018581111561011457600080fd5b825164010000000081118282018810171561012e57600080fd5b82525081516020918201929091019080838360005b8381101561015b578181015183820152602001610143565b50505050905090810190601f1680156101885780820380516001836020036101000a031916815260200191505b50604090815260208201519101519092509050633b9aca008111156101de5760405162461bcd60e51b815260040180806020018281038252602b815260200180610b42602b913960400191505060405180910390fd5b83516101f1906000906020870190610238565b508251610205906001906020860190610238565b506002805460ff191660ff9390931692909217909155600381905533600090815260046020526040902055506102d39050565b828054600181600116156101000203166002900490600052602060002090601f016020900481019282601f1061027957805160ff19168380011785556102a6565b828001600101855582156102a6579182015b828111156102a657825182559160200191906001019061028b565b506102b29291506102b6565b5090565b6102d091905b808211156102b257600081556001016102bc565b90565b610860806102e26000396000f3fe608060405234801561001057600080fd5b50600436106100b45760003560e01c8063313ce56711610071578063313ce567146101f45780635c6581651461021257806370a082311461024057806395d89b4114610266578063a9059cbb1461026e578063dd62ed3e1461029a576100b4565b8063047fc9aa146100b957806306fdde03146100d3578063095ea7b31461015057806318160ddd1461019057806323b872dd1461019857806327e235e3146101ce575b600080fd5b6100c16102c8565b60408051918252519081900360200190f35b6100db6102ce565b6040805160208082528351818301528351919283929083019185019080838360005b838110156101155781810151838201526020016100fd565b50505050905090810190601f1680156101425780820380516001836020036101000a031916815260200191505b509250505060405180910390f35b61017c6004803603604081101561016657600080fd5b506001600160a01b03813516906020013561035c565b604080519115158252519081900360200190f35b6100c1610415565b61017c600480360360608110156101ae57600080fd5b506001600160a01b0381358116916020810135909116906040013561041b565b6100c1600480360360208110156101e457600080fd5b50356001600160a01b03166105cf565b6101fc6105e1565b6040805160ff9092168252519081900360200190f35b6100c16004803603604081101561022857600080fd5b506001600160a01b03813581169160200135166105ea565b6100c16004803603602081101561025657600080fd5b50356001600160a01b0316610607565b6100db610622565b61017c6004803603604081101561028457600080fd5b506001600160a01b03813516906020013561067c565b6100c1600480360360408110156102b057600080fd5b506001600160a01b0381358116916020013516610795565b60035481565b6000805460408051602060026001851615610100026000190190941693909304601f810184900484028201840190925281815292918301828280156103545780601f1061032957610100808354040283529160200191610354565b820191906000526020600020905b81548152906001019060200180831161033757829003601f168201915b505050505081565b6000336001600160a01b03841614156103a65760405162461bcd60e51b81526004018080602001828103825260258152602001806107e66025913960400191505060405180910390fd5b3360008181526005602090815260408083206001600160a01b03881680855290835292819020869055805193845290830191909152818101849052517f8c5be1e5ebec7d5bd14f71427d1e84f3dd0314c0f7b2291e5b200ac8c7c3b9259181900360600190a150600192915050565b60035490565b6000826001600160a01b0316846001600160a01b0316141561046e5760405162461bcd60e51b815260040180806020018281038252602181526020018061080b6021913960400191505060405180910390fd5b6001600160a01b0384166000908152600460205260409020548211156104d0576040805162461bcd60e51b81526020600482015260126024820152714e6f7420656e6f7567682062616c616e636560701b604482015290519081900360640190fd5b6001600160a01b038416600090815260056020908152604080832033845290915290205482111561053f576040805162461bcd60e51b81526020600482015260146024820152734e6f7420656e6f75676820616c6c6f77616e636560601b604482015290519081900360640190fd5b6001600160a01b038085166000818152600460209081526040808320805488900390559387168083528483208054880190558383526005825284832033845282529184902080548790039055835192835282015280820184905290517fddf252ad1be2c89b69c2b068fc378daa952ba7f163c4a11628f55a4df523b3ef9181900360600190a15060019392505050565b60046020526000908152604090205481565b60025460ff1681565b600560209081526000928352604080842090915290825290205481565b6001600160a01b031660009081526004602052604090205490565b60018054604080516020600284861615610100026000190190941693909304601f810184900484028201840190925281815292918301828280156103545780601f1061032957610100808354040283529160200191610354565b6000336001600160a01b03841614156106c65760405162461bcd60e51b81526004018080602001828103825260258152602001806107c16025913960400191505060405180910390fd5b3360009081526004602052604090205482111561071f576040805162461bcd60e51b81526020600482015260126024820152714e6f7420656e6f7567682062616c616e636560701b604482015290519081900360640190fd5b336000818152600460209081526040808320805487900390556001600160a01b03871680845292819020805487019055805193845290830191909152818101849052517fddf252ad1be2c89b69c2b068fc378daa952ba7f163c4a11628f55a4df523b3ef9181900360600190a150600192915050565b6001600160a01b0391821660009081526005602090815260408083209390941682529190915220549056fe53656e64657220616e642072656365697665722063616e2774206265207468652073616d6553656e64657220616e642064656c65676174652063616e2774206265207468652073616d654f776e657220616e642042757965722063616e2774206265207468652073616d65a265627a7a72315820a1f081dff89ca4155ed36bbb907da855a71f50919a9ef6a3776f3b9693f6d89564736f6c634300051000324d6178696d756d20737570706c792063616e206f6e6c7920626520612062696c6c696f6e20746f6b656e73",
  "source": "pragma solidity =0.5.16;\n\ncontract WETHToken {\n    string public name;\n    string public symbol; // Usually is 3 or 4 letters long\n    uint8 public decimals; // maximum is 18 decimals\n    uint256 public supply;\n\n    mapping(address => uint256) public balances;\n    mapping(address => mapping(address => uint256)) public allowed;\n    //Events\n    event Transfer(address sender, address receiver, uint256 tokens);\n    event Approval(address sender, address delegate, uint256 tokens);\n\n    //constructor\n    constructor(\n        string memory _name,\n        string memory _symbol,\n        uint8 _decimals,\n        uint256 _supply\n    ) public {\n        require(\n            _supply <= 1000000000,\n            \"Maximum supply can only be a billion tokens\"\n        );\n        name = _name;\n        symbol = _symbol;\n        decimals = _decimals;\n        supply = _supply;\n        balances[msg.sender] = _supply;\n    }\n\n    //Functions\n    //return the total number of tokens that you have\n    function totalSupply() external view returns (uint256) {\n        return supply;\n    }\n\n    //How many tokens does this person have\n    function balanceOf(address tokenOwner) external view returns (uint256) {\n        return balances[tokenOwner];\n    }\n\n    //helps in transferring from your account to another person\n    function transfer(address receiver, uint256 numTokens)\n        external\n        returns (bool)\n    {\n        require(\n            msg.sender != receiver,\n            \"Sender and receiver can't be the same\"\n        );\n        require(balances[msg.sender] >= numTokens, \"Not enough balance\");\n        balances[msg.sender] -= numTokens;\n        balances[receiver] += numTokens;\n        emit Transfer(msg.sender, receiver, numTokens);\n        return true;\n    }\n\n    // Used to delegate authority to send tokens without my approval\n    function approve(address delegate, uint256 numTokens)\n        external\n        returns (bool)\n    {\n        require(\n            msg.sender != delegate,\n            \"Sender and delegate can't be the same\"\n        );\n        allowed[msg.sender][delegate] = numTokens;\n        emit Approval(msg.sender, delegate, numTokens);\n        return true;\n    }\n\n    // How much has the owner delegated/approved to the delegate\n    function allowance(address owner, address delegate)\n        external\n        view\n        returns (uint256)\n    {\n        return allowed[owner][delegate];\n    }\n\n    // Used by exchanges to send money from owner to buyer\n    function transferFrom(\n        address owner,\n        address buyer,\n        uint256 numTokens\n    ) external returns (bool) {\n        require(owner != buyer, \"Owner and Buyer can't be the same\");\n        require(balances[owner] >= numTokens, \"Not enough balance\");\n        require(\n            allowed[owner][msg.sender] >= numTokens,\n            \"Not enough allowance\"\n        );\n        balances[owner] -= numTokens;\n        balances[buyer] += numTokens;\n        allowed[owner][msg.sender] -= numTokens;\n        emit Transfer(owner, buyer, numTokens);\n        return true;\n    }\n}\n",
  "sourcePath": "/Users/raghu/Fanance/fanance-dapp/contracts/_supportingContracts/MaticWETH.sol",
  "compiler": {
    "name": "solc",
    "version": "0.5.16+commit.9c3226ce.Emscripten.clang"
  },
  "schemaVersion": "3.2.3",
  "updatedAt": "2021-01-16T14:48:09.565Z",
  "networkType": "ethereum",
  "devdoc": {
    "methods": {}
  },
  "userdoc": {
    "methods": {}
  }
}